{
  "contractName": "Monetizer",
  "abi": [
    {
      "inputs": [
        {
          "internalType": "contract WitnetRequestBoard",
          "name": "_wrb",
          "type": "address"
        }
      ],
      "stateMutability": "nonpayable",
      "type": "constructor"
    },
    {
      "anonymous": false,
      "inputs": [
        {
          "indexed": false,
          "internalType": "string",
          "name": "id",
          "type": "string"
        }
      ],
      "name": "Paid",
      "type": "event"
    },
    {
      "anonymous": false,
      "inputs": [
        {
          "indexed": false,
          "internalType": "string",
          "name": "msg",
          "type": "string"
        }
      ],
      "name": "ResultError",
      "type": "event"
    },
    {
      "inputs": [],
      "name": "witnet",
      "outputs": [
        {
          "internalType": "contract WitnetRequestBoard",
          "name": "",
          "type": "address"
        }
      ],
      "stateMutability": "view",
      "type": "function"
    },
    {
      "inputs": [
        {
          "internalType": "string",
          "name": "_id",
          "type": "string"
        },
        {
          "internalType": "address payable",
          "name": "_beneficiary",
          "type": "address"
        },
        {
          "internalType": "uint256",
          "name": "_lockTime",
          "type": "uint256"
        },
        {
          "internalType": "uint256",
          "name": "_targetViewCount",
          "type": "uint256"
        }
      ],
      "name": "deposit",
      "outputs": [],
      "stateMutability": "payable",
      "type": "function"
    },
    {
      "inputs": [
        {
          "internalType": "string",
          "name": "_id",
          "type": "string"
        }
      ],
      "name": "checkViews",
      "outputs": [],
      "stateMutability": "payable",
      "type": "function"
    },
    {
      "inputs": [
        {
          "internalType": "string",
          "name": "_id",
          "type": "string"
        }
      ],
      "name": "withdraw",
      "outputs": [],
      "stateMutability": "nonpayable",
      "type": "function"
    }
  ],
  "bytecode": "0x60a060405234801561001057600080fd5b50604051611e93380380611e9383398101604081905261002f916100a0565b806001600160a01b03811661008a5760405162461bcd60e51b815260206004820152601960248201527f5573696e675769746e65743a207a65726f206164647265737300000000000000604482015260640160405180910390fd5b60601b6001600160601b031916608052506100d0565b6000602082840312156100b257600080fd5b81516001600160a01b03811681146100c957600080fd5b9392505050565b60805160601c611d7c6101176000396000818160840152818161030e015281816103b9015281816107e201528181610ce101528181610def0152610ea10152611d7c6000f3fe608060405260043610620000445760003560e01c806331fb67c2146200004957806346d1d21a1462000070578063b2918ef614620000c2578063b855548f14620000d9575b600080fd5b3480156200005657600080fd5b506200006e62000068366004620011dd565b620000f0565b005b3480156200007d57600080fd5b50620000a67f000000000000000000000000000000000000000000000000000000000000000081565b6040516001600160a01b03909116815260200160405180910390f35b6200006e620000d3366004620011dd565b6200091f565b6200006e620000ea36600462001223565b62000adf565b818160008282604051620001069291906200147f565b9081526040519081900360200190205460ff16620001415760405162461bcd60e51b815260040162000138906200158c565b60405180910390fd5b83834260008383604051620001589291906200147f565b90815260200160405180910390206004015411156200018b5760405162461bcd60e51b81526004016200013890620015ce565b85856000808383604051620001a29291906200147f565b90815260200160405180910390206007015411620002295760405162461bcd60e51b815260206004820152603c60248201527f4d6f6e6574697a65723a207669657720636f756e74206e6565647320746f206260448201527f6520636865636b6564206265666f7265207769746864726177696e6700000000606482015260840162000138565b87876200025b60008383604051620002439291906200147f565b90815260200160405180910390206007015462000cc7565b620002c25760405162461bcd60e51b815260206004820152603060248201527f4d6f6e6574697a65723a207669657720636f756e742069732063757272656e7460448201526f1b1e4818995a5b99c818da1958dad95960821b606482015260840162000138565b6000620002f460008c8c604051620002dc9291906200147f565b90815260200160405180910390206007015462000d82565b604051635430260d60e11b81529091506001600160a01b037f0000000000000000000000000000000000000000000000000000000000000000169063a8604c1a90620003459084906004016200162b565b60206040518083038186803b1580156200035e57600080fd5b505afa15801562000373573d6000803e3d6000fd5b505050506040513d601f19601f8201168201806040525081019062000399919062001125565b15620007c85760405163bc7e25ff60e01b81526000906001600160a01b037f0000000000000000000000000000000000000000000000000000000000000000169063bc7e25ff90620003f09085906004016200162b565b60206040518083038186803b1580156200040957600080fd5b505afa1580156200041e573d6000803e3d6000fd5b505050506040513d601f19601f8201168201806040525081019062000444919062001433565b90506000808d8d6040516200045b9291906200147f565b9081526040805191829003602090810183206101008401909252815460ff1615158352600182018054918401916200049390620017ab565b80601f0160208091040260200160405190810160405280929190818152602001828054620004c190620017ab565b8015620005125780601f10620004e65761010080835404028352916020019162000512565b820191906000526020600020905b815481529060010190602001808311620004f457829003601f168201915b505050918352505060028201546001600160a01b03908116602083015260038301541660408201526004820154606082015260058201546080820152600682015460a08083019190915260079092015460c09091015281015190915067ffffffffffffffff8316106200064857600081606001516001600160a01b03168260c0015160405160006040518083038185875af1925050503d8060008114620005d6576040519150601f19603f3d011682016040523d82523d6000602084013e620005db565b606091505b5050905080620006415760405162461bcd60e51b815260206004820152602a60248201527f4d6f6e6574697a65723a206661696c656420746f2073656e64204574686572206044820152693a379031b932b0ba37b960b11b606482015260840162000138565b506200070a565b600081604001516001600160a01b03168260c0015160405160006040518083038185875af1925050503d80600081146200069f576040519150601f19603f3d011682016040523d82523d6000602084013e620006a4565b606091505b5050905080620007085760405162461bcd60e51b815260206004820152602860248201527f4d6f6e6574697a65723a206661696c656420746f2073656e64204574686572206044820152673a37903830bcb2b960c11b606482015260840162000138565b505b7f135230638ed83f859d289a9c4c8ab47ce7e8e9f4ce5682233bbd163e94ce4e0f8d8d6040516200073d9291906200155d565b60405180910390a160008d8d604051620007599291906200147f565b908152604051908190036020019020805460ff19168155600062000781600183018262000f25565b506002810180546001600160a01b03199081169091556003820180549091169055600060048201819055600582018190556006820181905560079091015550620009129050565b604051636ba401df60e11b81526060906001600160a01b037f0000000000000000000000000000000000000000000000000000000000000000169063d74803be90620008199085906004016200162b565b60006040518083038186803b1580156200083257600080fd5b505afa9250505080156200086a57506040513d6000823e601f3d908101601f191682016040526200086791908101906200114a565b60015b620008a9573d8080156200089b576040519150601f19603f3d011682016040523d82523d6000602084013e620008a0565b606091505b509050620008ad565b9150505b6000808d8d604051620008c29291906200147f565b9081526020016040518091039020600701819055507fbfea49e8f99b20639d8417dbf46bab7c20b217fbe894ea27a249c990c1a359d68160405162000908919062001548565b60405180910390a1505b5050505050505050505050565b818160008282604051620009359291906200147f565b9081526040519081900360200190205460ff16620009675760405162461bcd60e51b815260040162000138906200158c565b838342600083836040516200097e9291906200147f565b9081526020016040518091039020600401541115620009b15760405162461bcd60e51b81526004016200013890620015ce565b858560008282604051620009c79291906200147f565b90815260200160405180910390206007015460001462000a425760405162461bcd60e51b815260206004820152602f60248201527f4d6f6e6574697a65723a207669657720636f756e742077617320616c7265616460448201526e1e4818995a5b99c818da1958dad959608a1b606482015260840162000138565b6000888860405160200162000a599291906200148f565b60405160208183030381529060405260405162000a769062000f67565b62000a82919062001548565b604051809103906000f08015801562000a9f573d6000803e3d6000fd5b50905062000aad8162000e7f565b60008a8a60405162000ac19291906200147f565b90815260405190819003602001902060070155505050505050505050565b84846000828260405162000af59291906200147f565b9081526040519081900360200190205460ff161562000b755760405162461bcd60e51b815260206004820152603560248201527f4d6f6e6574697a65723a2074686572652077617320616c72656164792061206460448201527465706f73697420666f72207468697320766964656f60581b606482015260840162000138565b60405180610100016040528060011515815260200188888080601f0160208091040260200160405190810160405280939291908181526020018383808284376000920191909152505050908252503360208201526001600160a01b03871660408201526060014262000be987600162001756565b62000bf591906200173b565b815260200184815260200134815260200160008152506000888860405162000c1f9291906200147f565b908152604051602091819003820190208251815460ff1916901515178155828201518051919262000c599260018501929091019062000f75565b5060408201516002820180546001600160a01b039283166001600160a01b03199182161790915560608401516003840180549190931691161790556080820151600482015560a0820151600582015560c0820151600682015560e09091015160079091015550505050505050565b60006002604051631bc1eaf360e21b8152600481018490527f00000000000000000000000000000000000000000000000000000000000000006001600160a01b031690636f07abcc9060240160206040518083038186803b15801562000d2c57600080fd5b505afa15801562000d41573d6000803e3d6000fd5b505050506040513d601f19601f8201168201806040525081019062000d679190620011ba565b600381111562000d7b5762000d7b620017fe565b1492915050565b62000dd96040805180820182526000808252825161010081018452606060c0820181815260e083018490528252602082810184905294820183905281018290526080810182905260a0810191909152909182015290565b6040516335369a6b60e21b8152600481018390527f00000000000000000000000000000000000000000000000000000000000000006001600160a01b03169063d4da69ac9060240160006040518083038186803b15801562000e3a57600080fd5b505afa15801562000e4f573d6000803e3d6000fd5b505050506040513d6000823e601f3d908101601f1916820160405262000e7991908101906200129b565b92915050565b60405163b281a7bd60e01b81526001600160a01b0382811660048301526000917f00000000000000000000000000000000000000000000000000000000000000009091169063b281a7bd9034906024016020604051808303818588803b15801562000ee957600080fd5b505af115801562000efe573d6000803e3d6000fd5b50505050506040513d601f19601f8201168201806040525081019062000e79919062001419565b50805462000f3390620017ab565b6000825580601f1062000f44575050565b601f01602090049060005260206000209081019062000f64919062001004565b50565b61051c806200182b83390190565b82805462000f8390620017ab565b90600052602060002090601f01602090048101928262000fa7576000855562000ff2565b82601f1062000fc257805160ff191683800117855562000ff2565b8280016001018555821562000ff2579182015b8281111562000ff257825182559160200191906001019062000fd5565b506200100092915062001004565b5090565b5b8082111562001000576000815560010162001005565b600067ffffffffffffffff8084111562001039576200103962001814565b604051601f8501601f19908116603f0116810190828211818310171562001064576200106462001814565b816040528093508581528686860111156200107e57600080fd5b6200108e86602083018762001778565b5050509392505050565b80518015158114620010a957600080fd5b919050565b60008083601f840112620010c157600080fd5b50813567ffffffffffffffff811115620010da57600080fd5b602083019150836020828501011115620010f357600080fd5b9250929050565b805167ffffffffffffffff81168114620010a957600080fd5b805160ff81168114620010a957600080fd5b6000602082840312156200113857600080fd5b620011438262001098565b9392505050565b600080604083850312156200115e57600080fd5b825161010081106200116f57600080fd5b602084015190925067ffffffffffffffff8111156200118d57600080fd5b8301601f810185136200119f57600080fd5b620011b0858251602084016200101b565b9150509250929050565b600060208284031215620011cd57600080fd5b8151600481106200114357600080fd5b60008060208385031215620011f157600080fd5b823567ffffffffffffffff8111156200120957600080fd5b6200121785828601620010ae565b90969095509350505050565b6000806000806000608086880312156200123c57600080fd5b853567ffffffffffffffff8111156200125457600080fd5b6200126288828901620010ae565b90965094505060208601356001600160a01b03811681146200128357600080fd5b94979396509394604081013594506060013592915050565b60006020808385031215620012af57600080fd5b825167ffffffffffffffff80821115620012c857600080fd5b9084019060408287031215620012dd57600080fd5b620012e7620016e9565b620012f28362001098565b815283830151828111156200130657600080fd5b929092019160c083880312156200131c57600080fd5b6200132662001715565b8351838111156200133657600080fd5b84016040818a0312156200134957600080fd5b62001353620016e9565b8151858111156200136357600080fd5b82019450601f85018a136200137757600080fd5b620013878a86518988016200101b565b815286820151945063ffffffff85168514620013a257600080fd5b808701859052825250620013b884860162001113565b85820152620013ca6040850162001113565b6040820152620013dd6060850162001113565b6060820152620013f060808501620010fa565b60808201526200140360a08501620010fa565b60a0820152938101939093525090949350505050565b6000602082840312156200142c57600080fd5b5051919050565b6000602082840312156200144657600080fd5b6200114382620010fa565b600081518084526200146b81602086016020860162001778565b601f01601f19169290920160200192915050565b8183823760009101908152919050565b7f0a7a08cc9d9f8906124c123a68747470733a2f2f6170692d6d6964646c65776181527f7265732e76657263656c2e6170702f6170692f796f75747562652f000000000060208201528183603b8301377f1a0e83187782186765766965777318731a110a0d08051209fb3ff199999999999101603b8101919091527f9a100322110a0d08051209fb3ff199999999999a100310c0843d186420e80728605b82015266333080c8afa02560c81b607b820152608201919050565b60208152600062001143602083018462001451565b60208152816020820152818360408301376000818301604090810191909152601f909201601f19160101919050565b60208082526022908201527f4d6f6e6574697a65723a2074686520766964656f20646f65736e2774206578696040820152611cdd60f21b606082015260800190565b60208082526037908201527f4d6f6e6574697a65723a207468652062656e65666963696172792074696d656c60408201527f6f636b20686173206e6f74206578706972656420796574000000000000000000606082015260800190565b6020815281511515602082015260006020830151604080840152805160c06060850152805160406101208601526200166861016086018262001451565b60209283015163ffffffff166101408701529183015160ff81166080870152919050604083015160ff811660a08701529150606083015160ff811660c08701529150608083015167ffffffffffffffff811660e0870152915060a08301519250620016e061010086018467ffffffffffffffff169052565b95945050505050565b6040805190810167ffffffffffffffff811182821017156200170f576200170f62001814565b60405290565b60405160c0810167ffffffffffffffff811182821017156200170f576200170f62001814565b60008219821115620017515762001751620017e8565b500190565b6000816000190483118215151615620017735762001773620017e8565b500290565b60005b83811015620017955781810151838201526020016200177b565b83811115620017a5576000848401525b50505050565b600181811c90821680620017c057607f821691505b60208210811415620017e257634e487b7160e01b600052602260045260246000fd5b50919050565b634e487b7160e01b600052601160045260246000fd5b634e487b7160e01b600052602160045260246000fd5b634e487b7160e01b600052604160045260246000fdfe608060405234801561001057600080fd5b5060405161051c38038061051c83398101604081905261002f91610169565b80516100429060009060208401906100b7565b506100568161005f60201b6100fa1760201c565b600155506102b2565b60006002826040516100719190610215565b602060405180830381855afa15801561008e573d6000803e3d6000fd5b5050506040513d601f19601f820116820180604052508101906100b19190610150565b92915050565b8280546100c390610261565b90600052602060002090601f0160209004810192826100e5576000855561012b565b82601f106100fe57805160ff191683800117855561012b565b8280016001018555821561012b579182015b8281111561012b578251825591602001919060010190610110565b5061013792915061013b565b5090565b5b80821115610137576000815560010161013c565b60006020828403121561016257600080fd5b5051919050565b60006020828403121561017b57600080fd5b81516001600160401b038082111561019257600080fd5b818401915084601f8301126101a657600080fd5b8151818111156101b8576101b861029c565b604051601f8201601f19908116603f011681019083821181831017156101e0576101e061029c565b816040528281528760208487010111156101f957600080fd5b61020a836020830160208801610231565b979650505050505050565b60008251610227818460208701610231565b9190910192915050565b60005b8381101561024c578181015183820152602001610234565b8381111561025b576000848401525b50505050565b600181811c9082168061027557607f821691505b6020821081141561029657634e487b7160e01b600052602260045260246000fd5b50919050565b634e487b7160e01b600052604160045260246000fd5b61025b806102c16000396000f3fe608060405234801561001057600080fd5b50600436106100365760003560e01c806309bd5a601461003b578063f094000214610057575b600080fd5b61004460015481565b6040519081526020015b60405180910390f35b61005f61006c565b60405161004e9190610187565b60008054610079906101ea565b80601f01602080910402602001604051908101604052809291908181526020018280546100a5906101ea565b80156100f25780601f106100c7576101008083540402835291602001916100f2565b820191906000526020600020905b8154815290600101906020018083116100d557829003601f168201915b505050505081565b600060028260405161010c919061016b565b602060405180830381855afa158015610129573d6000803e3d6000fd5b5050506040513d601f19601f8201168201806040525081019061014c9190610152565b92915050565b60006020828403121561016457600080fd5b5051919050565b6000825161017d8184602087016101ba565b9190910192915050565b60208152600082518060208401526101a68160408501602087016101ba565b601f01601f19169190910160400192915050565b60005b838110156101d55781810151838201526020016101bd565b838111156101e4576000848401525b50505050565b600181811c908216806101fe57607f821691505b6020821081141561021f57634e487b7160e01b600052602260045260246000fd5b5091905056fea2646970667358221220ef494af7a904df372b1fc8471cbeb2be65a1db9560e8c7e0eb9bff297674d4ff64736f6c63430008070033a2646970667358221220267011801e8f155508c86d7acbd2b56a421fe5ed5f8dbf93324557eefa28ebc464736f6c63430008070033",
  "immutableReferences": {
    "379": [
      {
        "length": 32,
        "start": 132
      },
      {
        "length": 32,
        "start": 782
      },
      {
        "length": 32,
        "start": 953
      },
      {
        "length": 32,
        "start": 2018
      },
      {
        "length": 32,
        "start": 3297
      },
      {
        "length": 32,
        "start": 3567
      },
      {
        "length": 32,
        "start": 3745
      }
    ]
  },
  "source": "// SPDX-License-Identifier: MIT\n\npragma solidity 0.8.7;\n\n// Import the UsingWitnet library that enables interacting with Witnet\nimport \"witnet-ethereum-bridge/contracts/UsingWitnet.sol\";\n// Import the WitnetRequest contract that enables creating requests on the spot\nimport \"witnet-ethereum-bridge/contracts/requests/WitnetRequest.sol\";\n\n/// Monetizer using the YouTube oracle\n/// @author Shronk\ncontract Monetizer is UsingWitnet {\n  // prettier-ignore\n  struct Video {\n    bool            notEmpty;\n    string          id;\n    address         depositor;\n    address payable beneficiary;\n    uint256         lockTime;\n    uint256         targetViewCount;\n    uint256         amount;\n    uint256         witnetQueryId;\n  }\n\n  mapping(string => Video) internal videos;\n\n  // Emits when someone is paid out\n  event Paid(string id);\n\n  // Emits when found an error decoding request result\n  event ResultError(string msg);\n\n  /// Check whether the video doesn't exist\n  modifier empty(string calldata _id) {\n    require(\n      !videos[_id].notEmpty,\n      \"Monetizer: there was already a deposit for this video\"\n    );\n    _;\n  }\n  /// Check whether the video exists\n  modifier notEmpty(string calldata _id) {\n    require(videos[_id].notEmpty, \"Monetizer: the video doesn't exist\");\n    _;\n  }\n\n  /// Check whether the beneficiary timelock has already expired\n  modifier timelockExpired(string calldata _id) {\n    require(\n      videos[_id].lockTime <= block.timestamp,\n      \"Monetizer: the beneficiary timelock has not expired yet\"\n    );\n    _;\n  }\n\n  /// Check whether the viewcount is currently being checked\n  modifier checked(string calldata _id) {\n    require(\n      videos[_id].witnetQueryId > 0,\n      \"Monetizer: view count needs to be checked before withdrawing\"\n    );\n    _;\n  }\n\n  /// Check whether the viewcount has not been checked yet\n  modifier notChecked(string calldata _id) {\n    require(\n      videos[_id].witnetQueryId == 0,\n      \"Monetizer: view count was already being checked\"\n    );\n    _;\n  }\n\n  /// Check whether there is a pending update\n  modifier notPending(string calldata _id) {\n    require(\n      _witnetCheckResultAvailability(videos[_id].witnetQueryId),\n      \"Monetizer: view count is currently being checked\"\n    );\n    _;\n  }\n\n  constructor(WitnetRequestBoard _wrb) UsingWitnet(_wrb) {}\n\n  /// Deposit tokens into the contract\n  /// @param _id              the ID of the YouTube video\n  /// @param _beneficiary     the address of the beneficiary\n  /// @param _lockTime        the time to lock\n  /// @param _targetViewCount the viewcount that is required for the withdrawal\n  // prettier-ignore\n  function deposit(\n    string calldata _id,\n    address payable _beneficiary,\n    uint256         _lockTime,\n    uint256         _targetViewCount\n  ) external payable empty(_id) {\n    videos[_id] = Video(\n      true,\n      _id,\n      msg.sender,\n      _beneficiary,\n      _lockTime * (1 seconds) + block.timestamp,\n      _targetViewCount,\n      msg.value,\n      0\n    );\n  }\n\n  /// Sends a data request to Witnet so as to get an attestation of the current viewcount of a video\n  function checkViews(string calldata _id)\n    external\n    payable\n    notEmpty(_id)\n    timelockExpired(_id)\n    notChecked(_id)\n  {\n    WitnetRequest request = new WitnetRequest(\n      bytes(\n        abi.encodePacked(\n          hex\"0a7a08cc9d9f8906124c123a68747470733a2f2f6170692d6d6964646c6577617265732e76657263656c2e6170702f6170692f796f75747562652f\",\n          _id,\n          hex\"1a0e83187782186765766965777318731a110a0d08051209fb3ff199999999999a100322110a0d08051209fb3ff199999999999a100310c0843d186420e80728333080c8afa025\"\n        )\n      )\n    );\n\n    // Keerp track of the Witnet query ID\n    videos[_id].witnetQueryId = _witnetPostRequest(request);\n  }\n\n  /// Withdraw tokens from the contract\n  function withdraw(string calldata _id)\n    external\n    notEmpty(_id)\n    timelockExpired(_id)\n    checked(_id)\n    notPending(_id)\n  {\n    Witnet.Result memory result = _witnetReadResult(videos[_id].witnetQueryId);\n\n    if (witnet.isOk(result)) {\n      // We got a valid view count!\n      uint64 viewCount = witnet.asUint64(result);\n      Video memory video = videos[_id];\n      // check whether the video has reached the target view count\n      if (viewCount >= video.targetViewCount) {\n        // if the target view count was reached, we can send the tokens to the beneficiary\n        (bool sent, ) = video.beneficiary.call{value: video.amount}(\"\");\n        require(sent, \"Monetizer: failed to send Ether to creator\");\n      } else {\n        // send the tokens back to the payer\n        (bool sent, ) = video.depositor.call{value: video.amount}(\"\");\n        require(sent, \"Monetizer: failed to send Ether to payer\");\n      }\n\n      emit Paid(_id);\n      delete videos[_id];\n    } else {\n      string memory errorMessage;\n\n      // Try to read the value as an error message, catch error bytes if read fails\n      try witnet.asErrorMessage(result) returns (\n        Witnet.ErrorCodes,\n        string memory e\n      ) {\n        errorMessage = e;\n      } catch (bytes memory errorBytes) {\n        errorMessage = string(errorBytes);\n      }\n\n      // The Witnet query failed. Set query ID to 0 so it can be retried using `checkViews()` again\n      videos[_id].witnetQueryId = 0;\n\n      emit ResultError(errorMessage);\n    }\n  }\n}\n",
  "sourcePath": "/home/ricsi/Programs/TypeScript/youtube-oracle/contracts/Monetizer.sol",
  "compiler": {
    "name": "solc",
    "version": "0.8.7+commit.e28d00a7.Emscripten.clang"
  },
  "schemaVersion": "3.4.3",
  "updatedAt": "2021-08-29T16:49:59.665Z",
  "devdoc": {
    "author": "Shronk",
    "kind": "dev",
    "methods": {
      "deposit(string,address,uint256,uint256)": {
        "params": {
          "_beneficiary": "the address of the beneficiary",
          "_id": "the ID of the YouTube video",
          "_lockTime": "the time to lock",
          "_targetViewCount": "the viewcount that is required for the withdrawal"
        }
      }
    },
    "version": 1
  },
  "userdoc": {
    "kind": "user",
    "methods": {
      "checkViews(string)": {
        "notice": "Sends a data request to Witnet so as to get an attestation of the current viewcount of a video"
      },
      "deposit(string,address,uint256,uint256)": {
        "notice": "Deposit tokens into the contract"
      },
      "withdraw(string)": {
        "notice": "Withdraw tokens from the contract"
      }
    },
    "notice": "Monetizer using the YouTube oracle",
    "version": 1
  }
}