{
  "contractName": "Monetizer",
  "abi": [
    {
      "inputs": [
        {
          "internalType": "contract WitnetRequestBoard",
          "name": "_wrb",
          "type": "address"
        }
      ],
      "stateMutability": "nonpayable",
      "type": "constructor"
    },
    {
      "inputs": [],
      "name": "AgreementIsEmpty",
      "type": "error"
    },
    {
      "inputs": [],
      "name": "AgreementIsNotEmpty",
      "type": "error"
    },
    {
      "inputs": [],
      "name": "PendingRequest",
      "type": "error"
    },
    {
      "inputs": [
        {
          "internalType": "uint256",
          "name": "expectedMinimum",
          "type": "uint256"
        },
        {
          "internalType": "uint256",
          "name": "current",
          "type": "uint256"
        }
      ],
      "name": "TimeLockHasNotExpiredYet",
      "type": "error"
    },
    {
      "inputs": [
        {
          "internalType": "address",
          "name": "addr",
          "type": "address"
        }
      ],
      "name": "TransferFailed",
      "type": "error"
    },
    {
      "inputs": [],
      "name": "ViewCountAlreadyChecked",
      "type": "error"
    },
    {
      "inputs": [],
      "name": "ViewCountNotCheckedYet",
      "type": "error"
    },
    {
      "anonymous": false,
      "inputs": [
        {
          "indexed": false,
          "internalType": "bytes11",
          "name": "id",
          "type": "bytes11"
        }
      ],
      "name": "Paid",
      "type": "event"
    },
    {
      "anonymous": false,
      "inputs": [
        {
          "indexed": false,
          "internalType": "string",
          "name": "msg",
          "type": "string"
        }
      ],
      "name": "ResultError",
      "type": "event"
    },
    {
      "inputs": [],
      "name": "query",
      "outputs": [
        {
          "internalType": "bytes",
          "name": "",
          "type": "bytes"
        }
      ],
      "stateMutability": "view",
      "type": "function",
      "constant": true
    },
    {
      "inputs": [],
      "name": "witnet",
      "outputs": [
        {
          "internalType": "contract WitnetRequestBoard",
          "name": "",
          "type": "address"
        }
      ],
      "stateMutability": "view",
      "type": "function",
      "constant": true
    },
    {
      "inputs": [
        {
          "internalType": "bytes11",
          "name": "_id",
          "type": "bytes11"
        },
        {
          "internalType": "address",
          "name": "_beneficiary",
          "type": "address"
        },
        {
          "internalType": "uint64",
          "name": "_lockTime",
          "type": "uint64"
        },
        {
          "internalType": "uint64",
          "name": "_targetViewCount",
          "type": "uint64"
        }
      ],
      "name": "deposit",
      "outputs": [],
      "stateMutability": "payable",
      "type": "function",
      "payable": true
    },
    {
      "inputs": [
        {
          "internalType": "bytes11",
          "name": "_id",
          "type": "bytes11"
        }
      ],
      "name": "checkViews",
      "outputs": [],
      "stateMutability": "payable",
      "type": "function",
      "payable": true
    },
    {
      "inputs": [
        {
          "internalType": "bytes11",
          "name": "_id",
          "type": "bytes11"
        }
      ],
      "name": "withdraw",
      "outputs": [],
      "stateMutability": "nonpayable",
      "type": "function"
    }
  ],
  "bytecode": "0x60a060405234801561001057600080fd5b50604051611b38380380611b3883398101604081905261002f916100a0565b806001600160a01b03811661008a5760405162461bcd60e51b815260206004820152601960248201527f5573696e675769746e65743a207a65726f206164647265737300000000000000604482015260640160405180910390fd5b60601b6001600160601b031916608052506100d0565b6000602082840312156100b257600080fd5b81516001600160a01b03811681146100c957600080fd5b9392505050565b60805160601c611a21610117600039600081816099015281816103c6015281816104710152818161080201528181610b2001528181610bc40152610cd20152611a216000f3fe608060405260043610620000505760003560e01c80632c46b205146200005557806346d1d21a1462000085578063a126b93814620000d4578063c9dfc97214620000ed578063cc98d3961462000112575b600080fd5b3480156200006257600080fd5b506200006d62000129565b6040516200007c9190620012bf565b60405180910390f35b3480156200009257600080fd5b50620000bb7f000000000000000000000000000000000000000000000000000000000000000081565b6040516001600160a01b0390911681526020016200007c565b620000eb620000e536600462000eff565b620001bf565b005b348015620000fa57600080fd5b50620000eb6200010c36600462000eff565b620002c6565b620000eb6200012336600462000f1d565b6200092c565b6000805462000138906200144d565b80601f016020809104026020016040519081016040528092919081815260200182805462000166906200144d565b8015620001b75780601f106200018b57610100808354040283529160200191620001b7565b820191906000526020600020905b8154815290600101906020018083116200019957829003601f168201915b505050505081565b6001600160a81b03198116600090815260016020526040902054819060ff16620001fc57604051634d23c7f160e01b815260040160405180910390fd5b6001600160a81b03198216600090815260016020526040902060040154156200023857604051630abcb50f60e41b815260040160405180910390fd5b6000826040516020016200024d919062001202565b6040516020818303038152906040526040516200026a9062000d5c565b620002769190620012bf565b604051809103906000f08015801562000293573d6000803e3d6000fd5b509050620002a18162000afe565b6001600160a81b03199093166000908152600160205260409020600401929092555050565b6001600160a81b03198116600090815260016020526040902054819060ff166200030357604051634d23c7f160e01b815260040160405180910390fd5b6001600160a81b031982166000908152600160205260409020600401546200033e57604051630556d40560e21b815260040160405180910390fd5b6001600160a81b03198216600090815260016020526040902060040154620003669062000baa565b6200038457604051637f31590d60e11b815260040160405180910390fd5b6001600160a81b03198216600090815260016020526040812060040154620003ac9062000c65565b604051635430260d60e11b81529091506001600160a01b037f0000000000000000000000000000000000000000000000000000000000000000169063a8604c1a90620003fd908490600401620012d4565b60206040518083038186803b1580156200041657600080fd5b505afa1580156200042b573d6000803e3d6000fd5b505050506040513d601f19601f8201168201806040525081019062000451919062000eda565b15620007e85760405163bc7e25ff60e01b81526000906001600160a01b037f0000000000000000000000000000000000000000000000000000000000000000169063bc7e25ff90620004a8908590600401620012d4565b60206040518083038186803b158015620004c157600080fd5b505afa158015620004d6573d6000803e3d6000fd5b505050506040513d601f19601f82011682018060405250810190620004fc9190620011b4565b6001600160a81b031980861660009081526001602081815260409283902083516101008082018652825460ff811683526001600160401b039181048216948301859052600160481b8104821696830196909652600160881b90950460a81b9095166060860152918201546001600160a01b03908116608086015260028301541660a0850152600382015460c085015260049091015460e0840152929350909190831610620006405760008160a001516001600160a01b03168260c0015160405160006040518083038185875af1925050503d8060008114620005fb576040519150601f19603f3d011682016040523d82523d6000602084013e62000600565b606091505b5050905080620006395760a08201516040516339f1c8d960e01b81526001600160a01b0390911660048201526024015b60405180910390fd5b5062000753565b6001600160a81b0319851660009081526001602052604090205442600160481b9091046001600160401b03161115620006c0576001600160a81b0319851660009081526001602052604090819020549051631cd0b3e960e11b8152600160481b9091046001600160401b0316600482015242602482015260440162000630565b600081608001516001600160a01b03168260c0015160405160006040518083038185875af1925050503d806000811462000717576040519150601f19603f3d011682016040523d82523d6000602084013e6200071c565b606091505b5050905080620007515760808201516040516339f1c8d960e01b81526001600160a01b03909116600482015260240162000630565b505b6040516001600160a81b0319861681527f4f021a40d83f4630380dd279930430944e9d92ac3d3835330916695e0c7c56379060200160405180910390a1505050506001600160a81b0319166000908152600160208190526040822080546001600160e01b031916815590810180546001600160a01b031990811690915560028201805490911690556003810182905560040155565b604051636ba401df60e11b81526060906001600160a01b037f0000000000000000000000000000000000000000000000000000000000000000169063d74803be9062000839908590600401620012d4565b60006040518083038186803b1580156200085257600080fd5b505afa9250505080156200088a57506040513d6000823e601f3d908101601f1916820160405262000887919081019062000f8b565b60015b620008c9573d808015620008bb576040519150601f19603f3d011682016040523d82523d6000602084013e620008c0565b606091505b509050620008cd565b9150505b6001600160a81b0319841660009081526001602052604080822060040191909155517fbfea49e8f99b20639d8417dbf46bab7c20b217fbe894ea27a249c990c1a359d6906200091e908390620012bf565b60405180910390a150505050565b836040516020016200093f919062001202565b604051602081830303815290604052600090805190602001906200096592919062000d6a565b506001600160a81b0319841660009081526001602081905260409091205460ff161415620009a657604051635390a8c760e01b815260040160405180910390fd5b6040805161010081018252600181526001600160401b0383166020820152908101620009d34285620013e0565b6001600160401b0390811682526001600160a81b03199096166020808301829052336040808501919091526001600160a01b0397881660608086019190915234608080870191909152600060a09687018190529485526001808552948390208751815495890151948901519389015160a81c600160881b026affffffffffffffffffffff60881b19948e16600160481b02949094167fffffffff00000000000000000000000000000000000000ffffffffffffffffff95909d166101000268ffffffffffffffffff1990961660ff909116179490941792909216999099179890981781559683015190870180549187166001600160a01b03199283161790559082015160028701805491909616911617909355505060c0810151600383015560e00151600490910155565b60405163b281a7bd60e01b81526001600160a01b0382811660048301526000917f00000000000000000000000000000000000000000000000000000000000000009091169063b281a7bd9034906024016020604051808303818588803b15801562000b6857600080fd5b505af115801562000b7d573d6000803e3d6000fd5b50505050506040513d601f19601f8201168201806040525081019062000ba491906200119a565b92915050565b60006002604051631bc1eaf360e21b8152600481018490527f00000000000000000000000000000000000000000000000000000000000000006001600160a01b031690636f07abcc9060240160206040518083038186803b15801562000c0f57600080fd5b505afa15801562000c24573d6000803e3d6000fd5b505050506040513d601f19601f8201168201806040525081019062000c4a919062000ffa565b600381111562000c5e5762000c5e6200148a565b1492915050565b62000cbc6040805180820182526000808252825161010081018452606060c0820181815260e083018490528252602082810184905294820183905281018290526080810182905260a0810191909152909182015290565b6040516335369a6b60e21b8152600481018390527f00000000000000000000000000000000000000000000000000000000000000006001600160a01b03169063d4da69ac9060240160006040518083038186803b15801562000d1d57600080fd5b505afa15801562000d32573d6000803e3d6000fd5b505050506040513d6000823e601f3d908101601f1916820160405262000ba491908101906200101d565b61051c80620014d083390190565b82805462000d78906200144d565b90600052602060002090601f01602090048101928262000d9c576000855562000de7565b82601f1062000db757805160ff191683800117855562000de7565b8280016001018555821562000de7579182015b8281111562000de757825182559160200191906001019062000dca565b5062000df592915062000df9565b5090565b5b8082111562000df5576000815560010162000dfa565b60006001600160401b038084111562000e2d5762000e2d620014a0565b604051601f8501601f19908116603f0116810190828211818310171562000e585762000e58620014a0565b8160405280935085815286868601111562000e7257600080fd5b62000e828660208301876200141a565b5050509392505050565b8051801515811462000e9d57600080fd5b919050565b80356001600160a81b03198116811462000e9d57600080fd5b805162000e9d81620014b6565b805160ff8116811462000e9d57600080fd5b60006020828403121562000eed57600080fd5b62000ef88262000e8c565b9392505050565b60006020828403121562000f1257600080fd5b62000ef88262000ea2565b6000806000806080858703121562000f3457600080fd5b62000f3f8562000ea2565b935060208501356001600160a01b038116811462000f5c57600080fd5b9250604085013562000f6e81620014b6565b9150606085013562000f8081620014b6565b939692955090935050565b6000806040838503121562000f9f57600080fd5b8251610100811062000fb057600080fd5b60208401519092506001600160401b0381111562000fcd57600080fd5b8301601f8101851362000fdf57600080fd5b62000ff08582516020840162000e10565b9150509250929050565b6000602082840312156200100d57600080fd5b81516004811062000ef857600080fd5b600060208083850312156200103157600080fd5b82516001600160401b03808211156200104957600080fd5b90840190604082870312156200105e57600080fd5b6200106862001390565b620010738362000e8c565b815283830151828111156200108757600080fd5b929092019160c083880312156200109d57600080fd5b620010a7620013bb565b835183811115620010b757600080fd5b84016040818a031215620010ca57600080fd5b620010d462001390565b815185811115620010e457600080fd5b82019450601f85018a13620010f857600080fd5b620011088a865189880162000e10565b815286820151945063ffffffff851685146200112357600080fd5b8087018590528252506200113984860162000ec8565b858201526200114b6040850162000ec8565b60408201526200115e6060850162000ec8565b6060820152620011716080850162000ebb565b60808201526200118460a0850162000ebb565b60a0820152938101939093525090949350505050565b600060208284031215620011ad57600080fd5b5051919050565b600060208284031215620011c757600080fd5b815162000ef881620014b6565b60008151808452620011ee8160208601602086016200141a565b601f01601f19169290920160200192915050565b7f0a7a08cc9d9f8906124c123a68747470733a2f2f6170692d6d6964646c65776181527f7265732e76657263656c2e6170702f6170692f796f75747562652f000000000060208201526001600160a81b031991909116603b8201527f1a0e83187782186765766965777318731a110a0d08051209fb3ff1999999999960468201527f9a100322110a0d08051209fb3ff199999999999a100310c0843d186420e80728606682015266333080c8afa02560c81b6086820152608d0190565b60208152600062000ef86020830184620011d4565b6020815281511515602082015260006020830151604080840152805160c060608501528051604061012086015262001311610160860182620011d4565b60209283015163ffffffff166101408701529183015160ff81166080870152919050604083015160ff811660a08701529150606083015160ff811660c0870152915060808301516001600160401b03811660e0870152915060a08301519250620013876101008601846001600160401b03169052565b95945050505050565b604080519081016001600160401b0381118282101715620013b557620013b5620014a0565b60405290565b60405160c081016001600160401b0381118282101715620013b557620013b5620014a0565b60006001600160401b038083168185168083038211156200141157634e487b7160e01b600052601160045260246000fd5b01949350505050565b60005b83811015620014375781810151838201526020016200141d565b8381111562001447576000848401525b50505050565b600181811c908216806200146257607f821691505b602082108114156200148457634e487b7160e01b600052602260045260246000fd5b50919050565b634e487b7160e01b600052602160045260246000fd5b634e487b7160e01b600052604160045260246000fd5b6001600160401b0381168114620014cc57600080fd5b5056fe608060405234801561001057600080fd5b5060405161051c38038061051c83398101604081905261002f91610169565b80516100429060009060208401906100b7565b506100568161005f60201b6100fa1760201c565b600155506102b2565b60006002826040516100719190610215565b602060405180830381855afa15801561008e573d6000803e3d6000fd5b5050506040513d601f19601f820116820180604052508101906100b19190610150565b92915050565b8280546100c390610261565b90600052602060002090601f0160209004810192826100e5576000855561012b565b82601f106100fe57805160ff191683800117855561012b565b8280016001018555821561012b579182015b8281111561012b578251825591602001919060010190610110565b5061013792915061013b565b5090565b5b80821115610137576000815560010161013c565b60006020828403121561016257600080fd5b5051919050565b60006020828403121561017b57600080fd5b81516001600160401b038082111561019257600080fd5b818401915084601f8301126101a657600080fd5b8151818111156101b8576101b861029c565b604051601f8201601f19908116603f011681019083821181831017156101e0576101e061029c565b816040528281528760208487010111156101f957600080fd5b61020a836020830160208801610231565b979650505050505050565b60008251610227818460208701610231565b9190910192915050565b60005b8381101561024c578181015183820152602001610234565b8381111561025b576000848401525b50505050565b600181811c9082168061027557607f821691505b6020821081141561029657634e487b7160e01b600052602260045260246000fd5b50919050565b634e487b7160e01b600052604160045260246000fd5b61025b806102c16000396000f3fe608060405234801561001057600080fd5b50600436106100365760003560e01c806309bd5a601461003b578063f094000214610057575b600080fd5b61004460015481565b6040519081526020015b60405180910390f35b61005f61006c565b60405161004e9190610187565b60008054610079906101ea565b80601f01602080910402602001604051908101604052809291908181526020018280546100a5906101ea565b80156100f25780601f106100c7576101008083540402835291602001916100f2565b820191906000526020600020905b8154815290600101906020018083116100d557829003601f168201915b505050505081565b600060028260405161010c919061016b565b602060405180830381855afa158015610129573d6000803e3d6000fd5b5050506040513d601f19601f8201168201806040525081019061014c9190610152565b92915050565b60006020828403121561016457600080fd5b5051919050565b6000825161017d8184602087016101ba565b9190910192915050565b60208152600082518060208401526101a68160408501602087016101ba565b601f01601f19169190910160400192915050565b60005b838110156101d55781810151838201526020016101bd565b838111156101e4576000848401525b50505050565b600181811c908216806101fe57607f821691505b6020821081141561021f57634e487b7160e01b600052602260045260246000fd5b5091905056fea26469706673582212201ca92cdaea2541ca294046432a33d9fd55d857f52a2b6650225314c882a5d70364736f6c63430008070033a26469706673582212204f41ed4f2fbecd8a8da1b099bbe35e918cfce75fa427c81b18758b587c574dcf64736f6c63430008070033",
  "immutableReferences": {
    "715": [
      {
        "length": 32,
        "start": 153
      },
      {
        "length": 32,
        "start": 966
      },
      {
        "length": 32,
        "start": 1137
      },
      {
        "length": 32,
        "start": 2050
      },
      {
        "length": 32,
        "start": 2848
      },
      {
        "length": 32,
        "start": 3012
      },
      {
        "length": 32,
        "start": 3282
      }
    ]
  },
  "source": "// File: witnet-ethereum-bridge/contracts/interfaces/IWitnetRequestBoardEvents.sol\n\n// SPDX-License-Identifier: MIT\n\npragma solidity 0.8.7;\n\n/// @title Witnet Request Board emitting events interface.\n/// @author The Witnet Foundation.\ninterface IWitnetRequestBoardEvents {\n  /// Emitted when a Witnet Data Request is posted to the WRB.\n  event PostedRequest(uint256 queryId, address from);\n\n  /// Emitted when a Witnet-solved result is reported to the WRB.\n  event PostedResult(uint256 queryId, address from);\n\n  /// Emitted when all data related to given query is deleted from the WRB.\n  event DeletedQuery(uint256 queryId, address from);\n}\n\n// File: witnet-ethereum-bridge/contracts/interfaces/IWitnetRequestBoardReporter.sol\n\n/// @title The Witnet Request Board Reporter interface.\n/// @author The Witnet Foundation.\ninterface IWitnetRequestBoardReporter {\n  /// Reports the Witnet-provided result to a previously posted request.\n  /// @dev Will assume `block.timestamp` as the timestamp at which the request was solved.\n  /// @dev Fails if:\n  /// @dev - the `_queryId` is not in 'Posted' status.\n  /// @dev - provided `_drTxHash` is zero;\n  /// @dev - length of provided `_result` is zero.\n  /// @param _queryId The unique identifier of the data request.\n  /// @param _drTxHash The hash of the solving tally transaction in Witnet.\n  /// @param _result The result itself as bytes.\n  function reportResult(\n    uint256 _queryId,\n    bytes32 _drTxHash,\n    bytes calldata _result\n  ) external;\n\n  /// Reports the Witnet-provided result to a previously posted request.\n  /// @dev Fails if:\n  /// @dev - called from unauthorized address;\n  /// @dev - the `_queryId` is not in 'Posted' status.\n  /// @dev - provided `_drTxHash` is zero;\n  /// @dev - length of provided `_result` is zero.\n  /// @param _queryId The unique query identifier\n  /// @param _timestamp The timestamp of the solving tally transaction in Witnet.\n  /// @param _drTxHash The hash of the solving tally transaction in Witnet.\n  /// @param _result The result itself as bytes.\n  function reportResult(\n    uint256 _queryId,\n    uint256 _timestamp,\n    bytes32 _drTxHash,\n    bytes calldata _result\n  ) external;\n}\n\n// File: witnet-ethereum-bridge/contracts/interfaces/IWitnetRequest.sol\n\n/// @title The Witnet Data Request basic interface.\n/// @author The Witnet Foundation.\ninterface IWitnetRequest {\n  /// A `IWitnetRequest` is constructed around a `bytes` value containing\n  /// a well-formed Witnet Data Request using Protocol Buffers.\n  function bytecode() external view returns (bytes memory);\n\n  /// Returns SHA256 hash of Witnet Data Request as CBOR-encoded bytes.\n  function hash() external view returns (bytes32);\n}\n\n// File: witnet-ethereum-bridge/contracts/libs/Witnet.sol\n\nlibrary Witnet {\n  /// @notice Witnet function that computes the hash of a CBOR-encoded Data Request.\n  /// @param _bytecode CBOR-encoded RADON.\n  function hash(bytes memory _bytecode) internal pure returns (bytes32) {\n    return sha256(_bytecode);\n  }\n\n  /// Struct containing both request and response data related to every query posted to the Witnet Request Board\n  struct Query {\n    Request request;\n    Response response;\n  }\n\n  /// Possible status of a Witnet query.\n  enum QueryStatus {\n    Unknown,\n    Posted,\n    Reported,\n    Deleted\n  }\n\n  /// Data kept in EVM-storage for every Request posted to the Witnet Request Board.\n  struct Request {\n    IWitnetRequest addr; // The contract containing the Data Request which execution has been requested.\n    address requester; // Address from which the request was posted.\n    bytes32 hash; // Hash of the Data Request whose execution has been requested.\n    uint256 gasprice; // Minimum gas price the DR resolver should pay on the solving tx.\n    uint256 reward; // Escrowed reward to be paid to the DR resolver.\n  }\n\n  /// Data kept in EVM-storage containing Witnet-provided response metadata and result.\n  struct Response {\n    address reporter; // Address from which the result was reported.\n    uint256 timestamp; // Timestamp of the Witnet-provided result.\n    bytes32 drTxHash; // Hash of the Witnet transaction that solved the queried Data Request.\n    bytes cborBytes; // Witnet-provided result CBOR-bytes to the queried Data Request.\n  }\n\n  /// Data struct containing the Witnet-provided result to a Data Request.\n  struct Result {\n    bool success; // Flag stating whether the request could get solved successfully, or not.\n    CBOR value; // Resulting value, in CBOR-serialized bytes.\n  }\n\n  /// Data struct following the RFC-7049 standard: Concise Binary Object Representation.\n  struct CBOR {\n    Buffer buffer;\n    uint8 initialByte;\n    uint8 majorType;\n    uint8 additionalInformation;\n    uint64 len;\n    uint64 tag;\n  }\n\n  /// Iterable bytes buffer.\n  struct Buffer {\n    bytes data;\n    uint32 cursor;\n  }\n\n  /// Witnet error codes table.\n  enum ErrorCodes {\n    // 0x00: Unknown error. Something went really bad!\n    Unknown,\n    // Script format errors\n    /// 0x01: At least one of the source scripts is not a valid CBOR-encoded value.\n    SourceScriptNotCBOR,\n    /// 0x02: The CBOR value decoded from a source script is not an Array.\n    SourceScriptNotArray,\n    /// 0x03: The Array value decoded form a source script is not a valid Data Request.\n    SourceScriptNotRADON,\n    /// Unallocated\n    ScriptFormat0x04,\n    ScriptFormat0x05,\n    ScriptFormat0x06,\n    ScriptFormat0x07,\n    ScriptFormat0x08,\n    ScriptFormat0x09,\n    ScriptFormat0x0A,\n    ScriptFormat0x0B,\n    ScriptFormat0x0C,\n    ScriptFormat0x0D,\n    ScriptFormat0x0E,\n    ScriptFormat0x0F,\n    // Complexity errors\n    /// 0x10: The request contains too many sources.\n    RequestTooManySources,\n    /// 0x11: The script contains too many calls.\n    ScriptTooManyCalls,\n    /// Unallocated\n    Complexity0x12,\n    Complexity0x13,\n    Complexity0x14,\n    Complexity0x15,\n    Complexity0x16,\n    Complexity0x17,\n    Complexity0x18,\n    Complexity0x19,\n    Complexity0x1A,\n    Complexity0x1B,\n    Complexity0x1C,\n    Complexity0x1D,\n    Complexity0x1E,\n    Complexity0x1F,\n    // Operator errors\n    /// 0x20: The operator does not exist.\n    UnsupportedOperator,\n    /// Unallocated\n    Operator0x21,\n    Operator0x22,\n    Operator0x23,\n    Operator0x24,\n    Operator0x25,\n    Operator0x26,\n    Operator0x27,\n    Operator0x28,\n    Operator0x29,\n    Operator0x2A,\n    Operator0x2B,\n    Operator0x2C,\n    Operator0x2D,\n    Operator0x2E,\n    Operator0x2F,\n    // Retrieval-specific errors\n    /// 0x30: At least one of the sources could not be retrieved, but returned HTTP error.\n    HTTP,\n    /// 0x31: Retrieval of at least one of the sources timed out.\n    RetrievalTimeout,\n    /// Unallocated\n    Retrieval0x32,\n    Retrieval0x33,\n    Retrieval0x34,\n    Retrieval0x35,\n    Retrieval0x36,\n    Retrieval0x37,\n    Retrieval0x38,\n    Retrieval0x39,\n    Retrieval0x3A,\n    Retrieval0x3B,\n    Retrieval0x3C,\n    Retrieval0x3D,\n    Retrieval0x3E,\n    Retrieval0x3F,\n    // Math errors\n    /// 0x40: Math operator caused an underflow.\n    Underflow,\n    /// 0x41: Math operator caused an overflow.\n    Overflow,\n    /// 0x42: Tried to divide by zero.\n    DivisionByZero,\n    /// Unallocated\n    Math0x43,\n    Math0x44,\n    Math0x45,\n    Math0x46,\n    Math0x47,\n    Math0x48,\n    Math0x49,\n    Math0x4A,\n    Math0x4B,\n    Math0x4C,\n    Math0x4D,\n    Math0x4E,\n    Math0x4F,\n    // Other errors\n    /// 0x50: Received zero reveals\n    NoReveals,\n    /// 0x51: Insufficient consensus in tally precondition clause\n    InsufficientConsensus,\n    /// 0x52: Received zero commits\n    InsufficientCommits,\n    /// 0x53: Generic error during tally execution\n    TallyExecution,\n    /// Unallocated\n    OtherError0x54,\n    OtherError0x55,\n    OtherError0x56,\n    OtherError0x57,\n    OtherError0x58,\n    OtherError0x59,\n    OtherError0x5A,\n    OtherError0x5B,\n    OtherError0x5C,\n    OtherError0x5D,\n    OtherError0x5E,\n    OtherError0x5F,\n    /// 0x60: Invalid reveal serialization (malformed reveals are converted to this value)\n    MalformedReveal,\n    /// Unallocated\n    OtherError0x61,\n    OtherError0x62,\n    OtherError0x63,\n    OtherError0x64,\n    OtherError0x65,\n    OtherError0x66,\n    OtherError0x67,\n    OtherError0x68,\n    OtherError0x69,\n    OtherError0x6A,\n    OtherError0x6B,\n    OtherError0x6C,\n    OtherError0x6D,\n    OtherError0x6E,\n    OtherError0x6F,\n    // Access errors\n    /// 0x70: Tried to access a value from an index using an index that is out of bounds\n    ArrayIndexOutOfBounds,\n    /// 0x71: Tried to access a value from a map using a key that does not exist\n    MapKeyNotFound,\n    /// Unallocated\n    OtherError0x72,\n    OtherError0x73,\n    OtherError0x74,\n    OtherError0x75,\n    OtherError0x76,\n    OtherError0x77,\n    OtherError0x78,\n    OtherError0x79,\n    OtherError0x7A,\n    OtherError0x7B,\n    OtherError0x7C,\n    OtherError0x7D,\n    OtherError0x7E,\n    OtherError0x7F,\n    OtherError0x80,\n    OtherError0x81,\n    OtherError0x82,\n    OtherError0x83,\n    OtherError0x84,\n    OtherError0x85,\n    OtherError0x86,\n    OtherError0x87,\n    OtherError0x88,\n    OtherError0x89,\n    OtherError0x8A,\n    OtherError0x8B,\n    OtherError0x8C,\n    OtherError0x8D,\n    OtherError0x8E,\n    OtherError0x8F,\n    OtherError0x90,\n    OtherError0x91,\n    OtherError0x92,\n    OtherError0x93,\n    OtherError0x94,\n    OtherError0x95,\n    OtherError0x96,\n    OtherError0x97,\n    OtherError0x98,\n    OtherError0x99,\n    OtherError0x9A,\n    OtherError0x9B,\n    OtherError0x9C,\n    OtherError0x9D,\n    OtherError0x9E,\n    OtherError0x9F,\n    OtherError0xA0,\n    OtherError0xA1,\n    OtherError0xA2,\n    OtherError0xA3,\n    OtherError0xA4,\n    OtherError0xA5,\n    OtherError0xA6,\n    OtherError0xA7,\n    OtherError0xA8,\n    OtherError0xA9,\n    OtherError0xAA,\n    OtherError0xAB,\n    OtherError0xAC,\n    OtherError0xAD,\n    OtherError0xAE,\n    OtherError0xAF,\n    OtherError0xB0,\n    OtherError0xB1,\n    OtherError0xB2,\n    OtherError0xB3,\n    OtherError0xB4,\n    OtherError0xB5,\n    OtherError0xB6,\n    OtherError0xB7,\n    OtherError0xB8,\n    OtherError0xB9,\n    OtherError0xBA,\n    OtherError0xBB,\n    OtherError0xBC,\n    OtherError0xBD,\n    OtherError0xBE,\n    OtherError0xBF,\n    OtherError0xC0,\n    OtherError0xC1,\n    OtherError0xC2,\n    OtherError0xC3,\n    OtherError0xC4,\n    OtherError0xC5,\n    OtherError0xC6,\n    OtherError0xC7,\n    OtherError0xC8,\n    OtherError0xC9,\n    OtherError0xCA,\n    OtherError0xCB,\n    OtherError0xCC,\n    OtherError0xCD,\n    OtherError0xCE,\n    OtherError0xCF,\n    OtherError0xD0,\n    OtherError0xD1,\n    OtherError0xD2,\n    OtherError0xD3,\n    OtherError0xD4,\n    OtherError0xD5,\n    OtherError0xD6,\n    OtherError0xD7,\n    OtherError0xD8,\n    OtherError0xD9,\n    OtherError0xDA,\n    OtherError0xDB,\n    OtherError0xDC,\n    OtherError0xDD,\n    OtherError0xDE,\n    OtherError0xDF,\n    // Bridge errors: errors that only belong in inter-client communication\n    /// 0xE0: Requests that cannot be parsed must always get this error as their result.\n    /// However, this is not a valid result in a Tally transaction, because invalid requests\n    /// are never included into blocks and therefore never get a Tally in response.\n    BridgeMalformedRequest,\n    /// 0xE1: Witnesses exceeds 100\n    BridgePoorIncentives,\n    /// 0xE2: The request is rejected on the grounds that it may cause the submitter to spend or stake an\n    /// amount of value that is unjustifiably high when compared with the reward they will be getting\n    BridgeOversizedResult,\n    /// Unallocated\n    OtherError0xE3,\n    OtherError0xE4,\n    OtherError0xE5,\n    OtherError0xE6,\n    OtherError0xE7,\n    OtherError0xE8,\n    OtherError0xE9,\n    OtherError0xEA,\n    OtherError0xEB,\n    OtherError0xEC,\n    OtherError0xED,\n    OtherError0xEE,\n    OtherError0xEF,\n    OtherError0xF0,\n    OtherError0xF1,\n    OtherError0xF2,\n    OtherError0xF3,\n    OtherError0xF4,\n    OtherError0xF5,\n    OtherError0xF6,\n    OtherError0xF7,\n    OtherError0xF8,\n    OtherError0xF9,\n    OtherError0xFA,\n    OtherError0xFB,\n    OtherError0xFC,\n    OtherError0xFD,\n    OtherError0xFE,\n    // This should not exist:\n    /// 0xFF: Some tally error is not intercepted but should\n    UnhandledIntercept\n  }\n}\n\n// File: witnet-ethereum-bridge/contracts/interfaces/IWitnetRequestBoardRequestor.sol\n\n/// @title Witnet Requestor Interface\n/// @notice It defines how to interact with the Witnet Request Board in order to:\n///   - request the execution of Witnet Radon scripts (data request);\n///   - upgrade the resolution reward of any previously posted request, in case gas price raises in mainnet;\n///   - read the result of any previously posted request, eventually reported by the Witnet DON.\n///   - remove from storage all data related to past and solved data requests, and results.\n/// @author The Witnet Foundation.\ninterface IWitnetRequestBoardRequestor {\n  /// Retrieves a copy of all Witnet-provided data related to a previously posted request, removing the whole query from the WRB storage.\n  /// @dev Fails if the `_queryId` is not in 'Reported' status, or called from an address different to\n  /// @dev the one that actually posted the given request.\n  /// @param _queryId The unique query identifier.\n  function deleteQuery(uint256 _queryId)\n    external\n    returns (Witnet.Response memory);\n\n  /// Requests the execution of the given Witnet Data Request in expectation that it will be relayed and solved by the Witnet DON.\n  /// A reward amount is escrowed by the Witnet Request Board that will be transferred to the reporter who relays back the Witnet-provided\n  /// result to this request.\n  /// @dev Fails if:\n  /// @dev - provided reward is too low.\n  /// @dev - provided script is zero address.\n  /// @dev - provided script bytecode is empty.\n  /// @param _addr The address of the IWitnetRequest contract that can provide the actual Data Request bytecode.\n  /// @return _queryId An unique query identifier.\n  function postRequest(IWitnetRequest _addr)\n    external\n    payable\n    returns (uint256 _queryId);\n\n  /// Increments the reward of a previously posted request by adding the transaction value to it.\n  /// @dev Updates request `gasPrice` in case this method is called with a higher\n  /// @dev gas price value than the one used in previous calls to `postRequest` or\n  /// @dev `upgradeReward`.\n  /// @dev Fails if the `_queryId` is not in 'Posted' status.\n  /// @dev Fails also in case the request `gasPrice` is increased, and the new\n  /// @dev reward value gets below new recalculated threshold.\n  /// @param _queryId The unique query identifier.\n  function upgradeReward(uint256 _queryId) external payable;\n}\n\n// File: witnet-ethereum-bridge/contracts/interfaces/IWitnetRequestBoardView.sol\n\n/// @title Witnet Request Board info interface.\n/// @author The Witnet Foundation.\ninterface IWitnetRequestBoardView {\n  /// Estimates the amount of reward we need to insert for a given gas price.\n  /// @param _gasPrice The gas price for which we need to calculate the rewards.\n  function estimateReward(uint256 _gasPrice) external view returns (uint256);\n\n  /// Returns next query id to be generated by the Witnet Request Board.\n  function getNextQueryId() external view returns (uint256);\n\n  /// Gets the whole Query data contents, if any, no matter its current status.\n  function getQueryData(uint256 _queryId)\n    external\n    view\n    returns (Witnet.Query memory);\n\n  /// Gets current status of given query.\n  function getQueryStatus(uint256 _queryId)\n    external\n    view\n    returns (Witnet.QueryStatus);\n\n  /// Retrieves the whole `Witnet.Request` record referred to a previously posted Witnet Data Request.\n  /// @dev Fails if the `_queryId` is not valid or, if it has been deleted,\n  /// @dev or if the related script bytecode got changed after being posted.\n  /// @param _queryId The unique query identifier.\n  function readRequest(uint256 _queryId)\n    external\n    view\n    returns (Witnet.Request memory);\n\n  /// Retrieves the serialized bytecode of a previously posted Witnet Data Request.\n  /// @dev Fails if the `_queryId` is not valid or, if it has been deleted,\n  /// @dev or if the related script bytecode got changed after being posted.\n  /// @param _queryId The unique query identifier.\n  function readRequestBytecode(uint256 _queryId)\n    external\n    view\n    returns (bytes memory);\n\n  /// Retrieves the gas price that any assigned reporter will have to pay when reporting result\n  /// to the referred query.\n  /// @dev Fails if the `_queryId` is not valid or, if it has been deleted,\n  /// @dev or if the related script bytecode got changed after being posted.\n  /// @param _queryId The unique query identifier.\n  function readRequestGasPrice(uint256 _queryId)\n    external\n    view\n    returns (uint256);\n\n  /// Retrieves the reward currently set for the referred query.\n  /// @dev Fails if the `_queryId` is not valid or, if it has been deleted,\n  /// @dev or if the related script bytecode got changed after being posted.\n  /// @param _queryId The unique query identifier.\n  function readRequestReward(uint256 _queryId) external view returns (uint256);\n\n  /// Retrieves the whole `Witnet.Response` record referred to a previously posted Witnet Data Request.\n  /// @dev Fails if the `_queryId` is not in 'Reported' status.\n  /// @param _queryId The unique query identifier.\n  function readResponse(uint256 _queryId)\n    external\n    view\n    returns (Witnet.Response memory);\n\n  /// Retrieves the hash of the Witnet transaction hash that actually solved the referred query.\n  /// @dev Fails if the `_queryId` is not in 'Reported' status.\n  /// @param _queryId The unique query identifier.\n  function readResponseDrTxHash(uint256 _queryId)\n    external\n    view\n    returns (bytes32);\n\n  /// Retrieves the address that reported the result to a previously-posted request.\n  /// @dev Fails if the `_queryId` is not in 'Reported' status.\n  /// @param _queryId The unique query identifier.\n  function readResponseReporter(uint256 _queryId)\n    external\n    view\n    returns (address);\n\n  /// Retrieves the Witnet-provided CBOR-bytes result of a previously posted request.\n  /// @dev Fails if the `_queryId` is not in 'Reported' status.\n  /// @param _queryId The unique query identifier.\n  function readResponseResult(uint256 _queryId)\n    external\n    view\n    returns (Witnet.Result memory);\n\n  /// Retrieves the timestamp in which the result to the referred query was solved by the Witnet DON.\n  /// @dev Fails if the `_queryId` is not in 'Reported' status.\n  /// @param _queryId The unique query identifier.\n  function readResponseTimestamp(uint256 _queryId)\n    external\n    view\n    returns (uint256);\n}\n\n// File: witnet-ethereum-bridge/contracts/interfaces/IWitnetRequestParser.sol\n\n/// @title The Witnet interface for decoding Witnet-provided request to Data Requests.\n/// This interface exposes functions to check for the success/failure of\n/// a Witnet-provided result, as well as to parse and convert result into\n/// Solidity types suitable to the application level.\n/// @author The Witnet Foundation.\ninterface IWitnetRequestParser {\n  /// Decode raw CBOR bytes into a Witnet.Result instance.\n  /// @param _cborBytes Raw bytes representing a CBOR-encoded value.\n  /// @return A `Witnet.Result` instance.\n  function resultFromCborBytes(bytes memory _cborBytes)\n    external\n    pure\n    returns (Witnet.Result memory);\n\n  /// Decode a CBOR value into a Witnet.Result instance.\n  /// @param _cborValue An instance of `Witnet.CBOR`.\n  /// @return A `Witnet.Result` instance.\n  function resultFromCborValue(Witnet.CBOR memory _cborValue)\n    external\n    pure\n    returns (Witnet.Result memory);\n\n  /// Tell if a Witnet.Result is successful.\n  /// @param _result An instance of Witnet.Result.\n  /// @return `true` if successful, `false` if errored.\n  function isOk(Witnet.Result memory _result) external pure returns (bool);\n\n  /// Tell if a Witnet.Result is errored.\n  /// @param _result An instance of Witnet.Result.\n  /// @return `true` if errored, `false` if successful.\n  function isError(Witnet.Result memory _result) external pure returns (bool);\n\n  /// Decode a bytes value from a Witnet.Result as a `bytes` value.\n  /// @param _result An instance of Witnet.Result.\n  /// @return The `bytes` decoded from the Witnet.Result.\n  function asBytes(Witnet.Result memory _result)\n    external\n    pure\n    returns (bytes memory);\n\n  /// Decode an error code from a Witnet.Result as a member of `Witnet.ErrorCodes`.\n  /// @param _result An instance of `Witnet.Result`.\n  /// @return The `CBORValue.Error memory` decoded from the Witnet.Result.\n  function asErrorCode(Witnet.Result memory _result)\n    external\n    pure\n    returns (Witnet.ErrorCodes);\n\n  /// Generate a suitable error message for a member of `Witnet.ErrorCodes` and its corresponding arguments.\n  /// @dev WARN: Note that client contracts should wrap this function into a try-catch foreseing potential errors generated in this function\n  /// @param _result An instance of `Witnet.Result`.\n  /// @return A tuple containing the `CBORValue.Error memory` decoded from the `Witnet.Result`, plus a loggable error message.\n  function asErrorMessage(Witnet.Result memory _result)\n    external\n    pure\n    returns (Witnet.ErrorCodes, string memory);\n\n  /// Decode a raw error from a `Witnet.Result` as a `uint64[]`.\n  /// @param _result An instance of `Witnet.Result`.\n  /// @return The `uint64[]` raw error as decoded from the `Witnet.Result`.\n  function asRawError(Witnet.Result memory _result)\n    external\n    pure\n    returns (uint64[] memory);\n\n  /// Decode a boolean value from a Witnet.Result as an `bool` value.\n  /// @param _result An instance of Witnet.Result.\n  /// @return The `bool` decoded from the Witnet.Result.\n  function asBool(Witnet.Result memory _result) external pure returns (bool);\n\n  /// Decode a fixed16 (half-precision) numeric value from a Witnet.Result as an `int32` value.\n  /// @dev Due to the lack of support for floating or fixed point arithmetic in the EVM, this method offsets all values.\n  /// by 5 decimal orders so as to get a fixed precision of 5 decimal positions, which should be OK for most `fixed16`.\n  /// use cases. In other words, the output of this method is 10,000 times the actual value, encoded into an `int32`.\n  /// @param _result An instance of Witnet.Result.\n  /// @return The `int128` decoded from the Witnet.Result.\n  function asFixed16(Witnet.Result memory _result)\n    external\n    pure\n    returns (int32);\n\n  /// Decode an array of fixed16 values from a Witnet.Result as an `int128[]` value.\n  /// @param _result An instance of Witnet.Result.\n  /// @return The `int128[]` decoded from the Witnet.Result.\n  function asFixed16Array(Witnet.Result memory _result)\n    external\n    pure\n    returns (int32[] memory);\n\n  /// Decode a integer numeric value from a Witnet.Result as an `int128` value.\n  /// @param _result An instance of Witnet.Result.\n  /// @return The `int128` decoded from the Witnet.Result.\n  function asInt128(Witnet.Result memory _result)\n    external\n    pure\n    returns (int128);\n\n  /// Decode an array of integer numeric values from a Witnet.Result as an `int128[]` value.\n  /// @param _result An instance of Witnet.Result.\n  /// @return The `int128[]` decoded from the Witnet.Result.\n  function asInt128Array(Witnet.Result memory _result)\n    external\n    pure\n    returns (int128[] memory);\n\n  /// Decode a string value from a Witnet.Result as a `string` value.\n  /// @param _result An instance of Witnet.Result.\n  /// @return The `string` decoded from the Witnet.Result.\n  function asString(Witnet.Result memory _result)\n    external\n    pure\n    returns (string memory);\n\n  /// Decode an array of string values from a Witnet.Result as a `string[]` value.\n  /// @param _result An instance of Witnet.Result.\n  /// @return The `string[]` decoded from the Witnet.Result.\n  function asStringArray(Witnet.Result memory _result)\n    external\n    pure\n    returns (string[] memory);\n\n  /// Decode a natural numeric value from a Witnet.Result as a `uint64` value.\n  /// @param _result An instance of Witnet.Result.\n  /// @return The `uint64` decoded from the Witnet.Result.\n  function asUint64(Witnet.Result memory _result)\n    external\n    pure\n    returns (uint64);\n\n  /// Decode an array of natural numeric values from a Witnet.Result as a `uint64[]` value.\n  /// @param _result An instance of Witnet.Result.\n  /// @return The `uint64[]` decoded from the Witnet.Result.\n  function asUint64Array(Witnet.Result memory _result)\n    external\n    pure\n    returns (uint64[] memory);\n}\n\n// File: witnet-ethereum-bridge/contracts/WitnetRequestBoard.sol\n\n/// @title Witnet Request Board functionality base contract.\n/// @author The Witnet Foundation.\nabstract contract WitnetRequestBoard is\n  IWitnetRequestBoardEvents,\n  IWitnetRequestBoardReporter,\n  IWitnetRequestBoardRequestor,\n  IWitnetRequestBoardView,\n  IWitnetRequestParser\n{\n  receive() external payable {\n    revert(\"WitnetRequestBoard: no transfers accepted\");\n  }\n}\n\n// File: witnet-ethereum-bridge/contracts/UsingWitnet.sol\n\n/// @title The UsingWitnet contract\n/// @dev Witnet-aware contracts can inherit from this contract in order to interact with Witnet.\n/// @author The Witnet Foundation.\nabstract contract UsingWitnet {\n  WitnetRequestBoard public immutable witnet;\n\n  /// Include an address to specify the WitnetRequestBoard entry point address.\n  /// @param _wrb The WitnetRequestBoard entry point address.\n  constructor(WitnetRequestBoard _wrb) {\n    require(address(_wrb) != address(0), \"UsingWitnet: zero address\");\n    witnet = _wrb;\n  }\n\n  /// Provides a convenient way for client contracts extending this to block the execution of the main logic of the\n  /// contract until a particular request has been successfully solved and reported by Witnet.\n  modifier witnetRequestSolved(uint256 _id) {\n    require(\n      _witnetCheckResultAvailability(_id),\n      \"UsingWitnet: request not solved\"\n    );\n    _;\n  }\n\n  /// Check if a data request has been solved and reported by Witnet.\n  /// @dev Contracts depending on Witnet should not start their main business logic (e.g. receiving value from third.\n  /// parties) before this method returns `true`.\n  /// @param _id The unique identifier of a previously posted data request.\n  /// @return A boolean telling if the request has been already resolved or not. Returns `false` also, if the result was deleted.\n  function _witnetCheckResultAvailability(uint256 _id)\n    internal\n    view\n    returns (bool)\n  {\n    return witnet.getQueryStatus(_id) == Witnet.QueryStatus.Reported;\n  }\n\n  /// Estimate the reward amount.\n  /// @param _gasPrice The gas price for which we want to retrieve the estimation.\n  /// @return The reward to be included for the given gas price.\n  function _witnetEstimateReward(uint256 _gasPrice)\n    internal\n    view\n    returns (uint256)\n  {\n    return witnet.estimateReward(_gasPrice);\n  }\n\n  /// Send a new request to the Witnet network with transaction value as a reward.\n  /// @param _request An instance of `IWitnetRequest` contract.\n  /// @return Sequential identifier for the request included in the WitnetRequestBoard.\n  function _witnetPostRequest(IWitnetRequest _request)\n    internal\n    returns (uint256)\n  {\n    return witnet.postRequest{value: msg.value}(_request);\n  }\n\n  /// Upgrade the reward for a previously posted request.\n  /// @dev Call to `upgradeReward` function in the WitnetRequestBoard contract.\n  /// @param _id The unique identifier of a request that has been previously sent to the WitnetRequestBoard.\n  function _witnetUpgradeReward(uint256 _id) internal {\n    witnet.upgradeReward{value: msg.value}(_id);\n  }\n\n  /// Read the Witnet-provided result to a previously posted request.\n  /// @param _id The unique identifier of a request that was posted to Witnet.\n  /// @return The result of the request as an instance of `Witnet.Result`.\n  function _witnetReadResult(uint256 _id)\n    internal\n    view\n    returns (Witnet.Result memory)\n  {\n    return witnet.readResponseResult(_id);\n  }\n\n  /// Retrieves copy of all response data related to a previously posted request, removing the whole query from storage.\n  /// @param _id The unique identifier of a previously posted request.\n  /// @return The Witnet-provided result to the request.\n  function _witnetDeleteQuery(uint256 _id)\n    internal\n    returns (Witnet.Response memory)\n  {\n    return witnet.deleteQuery(_id);\n  }\n}\n\n// File: witnet-ethereum-bridge/contracts/requests/WitnetRequestBase.sol\n\nabstract contract WitnetRequestBase is IWitnetRequest {\n  /// Contains a well-formed Witnet Data Request, encoded using Protocol Buffers.\n  bytes public override bytecode;\n\n  /// Returns SHA256 hash of Witnet Data Request as CBOR-encoded bytes.\n  bytes32 public override hash;\n}\n\n// File: witnet-ethereum-bridge/contracts/requests/WitnetRequest.sol\n\ncontract WitnetRequest is WitnetRequestBase {\n  using Witnet for bytes;\n\n  constructor(bytes memory _bytecode) {\n    bytecode = _bytecode;\n    hash = _bytecode.hash();\n  }\n}\n\n// File: contracts/Monetizer.sol\n\n/// @title YouTube monetizer using Witnet oracles\n/// @author Shronk, aesedepece\ncontract Monetizer is UsingWitnet {\n  bytes public query;\n\n  // prettier-ignore\n  struct Video {\n    uint8   notEmpty;        // whetherthe agreement is empty or not\n    uint64  targetViewCount; // the viewcount the video has to reach\n    uint64  lockTime;        // the time until the tokens can be withdrawn\n    bytes11 id;              // ID of the YouTube video\n    address depositor;       // the depositor's adress\n    address beneficiary;     // the beneficiary's address\n    uint256 amount;          // amount of tokens deposited\n    uint256 witnetQueryId;   // ID of Witnet query\n  }\n\n  /// Map an agreement to an ID\n  mapping(bytes11 => Video) internal videos;\n\n  /// Emits when someone is paid out\n  event Paid(bytes11 id);\n\n  /// Emits when found an error decoding request result\n  event ResultError(string msg);\n\n  error AgreementIsEmpty();\n  error AgreementIsNotEmpty();\n  error TimeLockHasNotExpiredYet(uint256 expectedMinimum, uint256 current);\n  error ViewCountNotCheckedYet();\n  error ViewCountAlreadyChecked();\n  error PendingRequest();\n  error TransferFailed(address addr);\n\n  /// Check whether the video exists\n  modifier notEmpty(bytes11 _id) {\n    if (videos[_id].notEmpty == 0) revert AgreementIsEmpty();\n    _;\n  }\n\n  constructor(WitnetRequestBoard _wrb) UsingWitnet(_wrb) {}\n\n  /// @notice Deposit tokens into the contract\n  /// @param _id              the ID of the YouTube video\n  /// @param _beneficiary     the address of the beneficiary\n  /// @param _lockTime        the time to lock\n  /// @param _targetViewCount the viewcount that is required for the withdrawal\n  // prettier-ignore\n  function deposit(\n    bytes11 _id,\n    address         _beneficiary,\n    uint64          _lockTime,\n    uint64          _targetViewCount\n  ) external payable {\n       query =    bytes(\n        abi.encodePacked(\n          hex\"0a7a08cc9d9f8906124c123a68747470733a2f2f6170692d6d6964646c6577617265732e76657263656c2e6170702f6170692f796f75747562652f\",\n          _id,\n          hex\"1a0e83187782186765766965777318731a110a0d08051209fb3ff199999999999a100322110a0d08051209fb3ff199999999999a100310c0843d186420e80728333080c8afa025\"\n        )\n      );\n    // Check whether the agreement is empty or not\n    if (videos[_id].notEmpty == 1) revert AgreementIsNotEmpty();\n\n    videos[_id] = Video(\n      1,                                   // notEmpty\n      _targetViewCount,                    // targetViewCount\n      _lockTime + uint64(block.timestamp), // lockTime\n      _id,                                 // id\n      msg.sender,                          // depositor\n      _beneficiary,                        // beneficiary\n      msg.value,                           // amount\n      0                                    // witnetQueryId\n    );\n  }\n\n  /// @notice Send a data request to Witnet so as to get an attestation of the\n  /// current viewcount of a video\n  function checkViews(bytes11 _id) external payable notEmpty(_id) {\n    // Check whether the viewcount has been checked\n    if (videos[_id].witnetQueryId > 0) revert ViewCountAlreadyChecked();\n\n    WitnetRequest request = new WitnetRequest(\n      bytes(\n        abi.encodePacked(\n          hex\"0a7a08cc9d9f8906124c123a68747470733a2f2f6170692d6d6964646c6577617265732e76657263656c2e6170702f6170692f796f75747562652f\",\n          _id,\n          hex\"1a0e83187782186765766965777318731a110a0d08051209fb3ff199999999999a100322110a0d08051209fb3ff199999999999a100310c0843d186420e80728333080c8afa025\"\n        )\n      )\n    );\n\n    // Keep track of the Witnet query ID\n    videos[_id].witnetQueryId = _witnetPostRequest(request);\n  }\n\n  /// @notice The depositor withdraws their tokens\n  function withdraw(bytes11 _id) external notEmpty(_id) {\n    // Check whether the viewcount has not been checked yet\n    if (videos[_id].witnetQueryId == 0) revert ViewCountNotCheckedYet();\n\n    if (!_witnetCheckResultAvailability(videos[_id].witnetQueryId))\n      revert PendingRequest();\n\n    Witnet.Result memory result = _witnetReadResult(videos[_id].witnetQueryId);\n\n    if (witnet.isOk(result)) {\n      // We got a valid view count!\n      uint64 viewCount = witnet.asUint64(result);\n      Video memory video = videos[_id];\n\n      // Check whether the video has reached the target view count\n      if (viewCount >= video.targetViewCount) {\n        // If the target view count was reached, we can send the tokens to the\n        // beneficiary\n        (bool sent, ) = video.beneficiary.call{value: video.amount}(\"\");\n        if (!sent) revert TransferFailed(video.beneficiary);\n      } else {\n        // check whether the timelock has expired\n        if (videos[_id].lockTime > block.timestamp)\n          revert TimeLockHasNotExpiredYet(\n            videos[_id].lockTime,\n            block.timestamp\n          );\n\n        // Send the tokens back to the depositor\n        (bool sent, ) = video.depositor.call{value: video.amount}(\"\");\n        if (!sent) revert TransferFailed(video.depositor);\n      }\n\n      emit Paid(_id);\n      delete videos[_id];\n    } else {\n      string memory errorMessage;\n\n      // Try to read the value as an error message, catch error bytes if read\n      // fails\n      try witnet.asErrorMessage(result) returns (\n        Witnet.ErrorCodes,\n        string memory e\n      ) {\n        errorMessage = e;\n      } catch (bytes memory errorBytes) {\n        errorMessage = string(errorBytes);\n      }\n\n      // The Witnet query failed. Set query ID to 0 so it can be retried using\n      // `checkViews()` again\n      videos[_id].witnetQueryId = 0;\n\n      emit ResultError(errorMessage);\n    }\n  }\n}\n",
  "sourcePath": "/home/ricsi/Programs/agora/performance-based-contracts/contracts/flattened/Flattened.sol",
  "compiler": {
    "name": "solc",
    "version": "0.8.7+commit.e28d00a7.Emscripten.clang"
  },
  "schemaVersion": "3.4.3",
  "updatedAt": "2021-09-07T14:06:35.932Z",
  "networkType": "ethereum",
  "devdoc": {
    "author": "Shronk, aesedepece",
    "kind": "dev",
    "methods": {
      "deposit(bytes11,address,uint64,uint64)": {
        "params": {
          "_beneficiary": "the address of the beneficiary",
          "_id": "the ID of the YouTube video",
          "_lockTime": "the time to lock",
          "_targetViewCount": "the viewcount that is required for the withdrawal"
        }
      }
    },
    "title": "YouTube monetizer using Witnet oracles",
    "version": 1
  },
  "userdoc": {
    "events": {
      "Paid(bytes11)": {
        "notice": "Emits when someone is paid out"
      },
      "ResultError(string)": {
        "notice": "Emits when found an error decoding request result"
      }
    },
    "kind": "user",
    "methods": {
      "checkViews(bytes11)": {
        "notice": "Send a data request to Witnet so as to get an attestation of the current viewcount of a video"
      },
      "deposit(bytes11,address,uint64,uint64)": {
        "notice": "Deposit tokens into the contract"
      },
      "withdraw(bytes11)": {
        "notice": "The depositor withdraws their tokens"
      }
    },
    "version": 1
  }
}