{
  "contractName": "Monetizer",
  "abi": [
    {
      "inputs": [
        {
          "internalType": "contract WitnetRequestBoard",
          "name": "_wrb",
          "type": "address"
        }
      ],
      "stateMutability": "nonpayable",
      "type": "constructor"
    },
    {
      "inputs": [],
      "name": "AgreementIsEmpty",
      "type": "error"
    },
    {
      "inputs": [],
      "name": "AgreementIsNotEmpty",
      "type": "error"
    },
    {
      "inputs": [],
      "name": "PendingRequest",
      "type": "error"
    },
    {
      "inputs": [
        {
          "internalType": "uint256",
          "name": "expectedMinimum",
          "type": "uint256"
        },
        {
          "internalType": "uint256",
          "name": "current",
          "type": "uint256"
        }
      ],
      "name": "TimeLockHasNotExpiredYet",
      "type": "error"
    },
    {
      "inputs": [
        {
          "internalType": "address",
          "name": "addr",
          "type": "address"
        }
      ],
      "name": "TransferFailed",
      "type": "error"
    },
    {
      "inputs": [],
      "name": "ViewCountAlreadyChecked",
      "type": "error"
    },
    {
      "inputs": [],
      "name": "ViewCountNotCheckedYet",
      "type": "error"
    },
    {
      "anonymous": false,
      "inputs": [
        {
          "indexed": false,
          "internalType": "bytes11",
          "name": "id",
          "type": "bytes11"
        }
      ],
      "name": "Paid",
      "type": "event"
    },
    {
      "anonymous": false,
      "inputs": [
        {
          "indexed": false,
          "internalType": "string",
          "name": "msg",
          "type": "string"
        }
      ],
      "name": "ResultError",
      "type": "event"
    },
    {
      "inputs": [],
      "name": "witnet",
      "outputs": [
        {
          "internalType": "contract WitnetRequestBoard",
          "name": "",
          "type": "address"
        }
      ],
      "stateMutability": "view",
      "type": "function",
      "constant": true
    },
    {
      "inputs": [],
      "name": "initialize",
      "outputs": [],
      "stateMutability": "view",
      "type": "function",
      "constant": true
    },
    {
      "inputs": [
        {
          "internalType": "bytes11",
          "name": "_id",
          "type": "bytes11"
        },
        {
          "internalType": "address",
          "name": "_beneficiary",
          "type": "address"
        },
        {
          "internalType": "uint64",
          "name": "_lockTime",
          "type": "uint64"
        },
        {
          "internalType": "uint64",
          "name": "_targetViewCount",
          "type": "uint64"
        }
      ],
      "name": "deposit",
      "outputs": [],
      "stateMutability": "payable",
      "type": "function",
      "payable": true
    },
    {
      "inputs": [
        {
          "internalType": "bytes11",
          "name": "_id",
          "type": "bytes11"
        }
      ],
      "name": "checkViews",
      "outputs": [],
      "stateMutability": "payable",
      "type": "function",
      "payable": true
    },
    {
      "inputs": [
        {
          "internalType": "bytes11",
          "name": "_id",
          "type": "bytes11"
        }
      ],
      "name": "withdraw",
      "outputs": [],
      "stateMutability": "nonpayable",
      "type": "function"
    }
  ],
  "bytecode": "0x60a060405234801561001057600080fd5b50604051611a05380380611a0583398101604081905261002f9161009c565b806001600160a01b03811661008a5760405162461bcd60e51b815260206004820152601960248201527f5573696e675769746e65743a207a65726f206164647265737300000000000000604482015260640160405180910390fd5b6001600160a01b0316608052506100cc565b6000602082840312156100ae57600080fd5b81516001600160a01b03811681146100c557600080fd5b9392505050565b6080516118ee610117600039600081816069015281816103bd01528181610468015281816107f501528181610ae301528181610b8801528181610c960152610d3e01526118ee6000f3fe608060405260043610620000505760003560e01c806346d1d21a14620000555780638129fc1c14620000a7578063a126b93814620000b8578063c9dfc97214620000cf578063cc98d39614620000f4575b600080fd5b3480156200006257600080fd5b506200008b7f000000000000000000000000000000000000000000000000000000000000000081565b6040516001600160a01b03909116815260200160405180910390f35b348015620000b457600080fd5b505b005b620000b6620000c936600462000df5565b6200010b565b348015620000dc57600080fd5b50620000b6620000ee36600462000df5565b620002bd565b620000b66200010536600462000e33565b6200091f565b6001600160a81b03198116600090815260208190526040902054819060ff166200014857604051634d23c7f160e01b815260040160405180910390fd5b6001600160a81b03198216600090815260208190526040902060040154156200018457604051630abcb50f60e41b815260040160405180910390fd5b604080517f0a76124e0801123a68747470733a2f2f6170692d6d6964646c6577617265732e60208201527f76657263656c2e6170702f6170692f796f75747562652f000000000000000000818301526001600160a81b0319841660578201527f1a0e83187782186765766965777318731a110a0d08051209fb3ff1999999999960628201527f9a100322110a0d08051209fb3ff199999999999a100310c0843d186420e80728608282015266333080c8afa02560c81b60a28201528151608981830301815260a990910191829052600091620002609062000dc9565b6200026c919062000f02565b604051809103906000f08015801562000289573d6000803e3d6000fd5b509050620002978162000ab4565b506001600160a81b03199093166000908152602081905260409020600401929092555050565b6001600160a81b03198116600090815260208190526040902054819060ff16620002fa57604051634d23c7f160e01b815260040160405180910390fd5b6001600160a81b031982166000908152602081905260409020600401546200033557604051630556d40560e21b815260040160405180910390fd5b6001600160a81b031982166000908152602081905260409020600401546200035d9062000b6e565b6200037b57604051637f31590d60e11b815260040160405180910390fd5b6001600160a81b03198216600090815260208190526040812060040154620003a39062000c29565b604051635430260d60e11b81529091506001600160a01b037f0000000000000000000000000000000000000000000000000000000000000000169063a8604c1a90620003f490849060040162000f17565b60206040518083038186803b1580156200040d57600080fd5b505afa15801562000422573d6000803e3d6000fd5b505050506040513d601f19601f8201168201806040525081019062000448919062000fe4565b15620007db5760405163bc7e25ff60e01b81526000906001600160a01b037f0000000000000000000000000000000000000000000000000000000000000000169063bc7e25ff906200049f90859060040162000f17565b60206040518083038186803b158015620004b857600080fd5b505afa158015620004cd573d6000803e3d6000fd5b505050506040513d601f19601f82011682018060405250810190620004f391906200100f565b6001600160a81b03198086166000908152602081815260409182902082516101008082018552825460ff811683526001600160401b039181048216948301859052600160481b8104821695830195909552600160881b90940460a81b909416606085015260018101546001600160a01b03908116608086015260028201541660a0850152600381015460c08501526004015460e0840152929350909190831610620006345760008160a001516001600160a01b03168260c0015160405160006040518083038185875af1925050503d8060008114620005ef576040519150601f19603f3d011682016040523d82523d6000602084013e620005f4565b606091505b50509050806200062d5760a08201516040516339f1c8d960e01b81526001600160a01b0390911660048201526024015b60405180910390fd5b5062000747565b6001600160a81b0319851660009081526020819052604090205442600160481b9091046001600160401b03161115620006b4576001600160a81b0319851660009081526020819052604090819020549051631cd0b3e960e11b8152600160481b9091046001600160401b0316600482015242602482015260440162000624565b600081608001516001600160a01b03168260c0015160405160006040518083038185875af1925050503d80600081146200070b576040519150601f19603f3d011682016040523d82523d6000602084013e62000710565b606091505b5050905080620007455760808201516040516339f1c8d960e01b81526001600160a01b03909116600482015260240162000624565b505b6040516001600160a81b0319861681527f4f021a40d83f4630380dd279930430944e9d92ac3d3835330916695e0c7c56379060200160405180910390a1505050506001600160a81b031916600090815260208190526040812080546001600160e01b03191681556001810180546001600160a01b031990811690915560028201805490911690556003810182905560040155565b604051636ba401df60e11b81526060906001600160a01b037f0000000000000000000000000000000000000000000000000000000000000000169063d74803be906200082c90859060040162000f17565b60006040518083038186803b1580156200084557600080fd5b505afa9250505080156200087d57506040513d6000823e601f3d908101601f191682016040526200087a919081019062001111565b60015b620008bc573d808015620008ae576040519150601f19603f3d011682016040523d82523d6000602084013e620008b3565b606091505b509050620008c0565b9150505b6001600160a81b0319841660009081526020819052604080822060040191909155517fbfea49e8f99b20639d8417dbf46bab7c20b217fbe894ea27a249c990c1a359d6906200091190839062000f02565b60405180910390a150505050565b6001600160a81b0319841660009081526020819052604090205460ff16600114156200095e57604051635390a8c760e01b815260040160405180910390fd5b6040805161010081018252600181526001600160401b03831660208201529081016200098b428562001180565b6001600160401b0390811682526001600160a81b03199096166020808301829052336040808501919091526001600160a01b0397881660608086019190915234608080870191909152600060a0968701819052948552848452938290208651815494880151938801519288015160a81c600160881b026affffffffffffffffffffff60881b19938d16600160481b02939093167fffffffff00000000000000000000000000000000000000ffffffffffffffffff94909c166101000268ffffffffffffffffff1990951660ff909116179390931791909116989098179790971787558201516001870180549187166001600160a01b03199283161790559082015160028701805491909616911617909355505060c0810151600383015560e00151600490910155565b60008062000ac162000d26565b60405163b281a7bd60e01b81526001600160a01b0385811660048301529192507f00000000000000000000000000000000000000000000000000000000000000009091169063b281a7bd9083906024016020604051808303818588803b15801562000b2b57600080fd5b505af115801562000b40573d6000803e3d6000fd5b50505050506040513d601f19601f8201168201806040525081019062000b679190620011ba565b9150915091565b60006002604051631bc1eaf360e21b8152600481018490527f00000000000000000000000000000000000000000000000000000000000000006001600160a01b031690636f07abcc9060240160206040518083038186803b15801562000bd357600080fd5b505afa15801562000be8573d6000803e3d6000fd5b505050506040513d601f19601f8201168201806040525081019062000c0e9190620011ea565b600381111562000c225762000c22620011d4565b1492915050565b62000c806040805180820182526000808252825161010081018452606060c0820181815260e083018490528252602082810184905294820183905281018290526080810182905260a0810191909152909182015290565b6040516335369a6b60e21b8152600481018390527f00000000000000000000000000000000000000000000000000000000000000006001600160a01b03169063d4da69ac9060240160006040518083038186803b15801562000ce157600080fd5b505afa15801562000cf6573d6000803e3d6000fd5b505050506040513d6000823e601f3d908101601f1916820160405262000d2091908101906200121f565b92915050565b60405163d2e8756160e01b81523a60048201526000907f00000000000000000000000000000000000000000000000000000000000000006001600160a01b03169063d2e875619060240160206040518083038186803b15801562000d8957600080fd5b505afa15801562000d9e573d6000803e3d6000fd5b505050506040513d601f19601f8201168201806040525081019062000dc49190620011ba565b905090565b61051c806200139d83390190565b80356001600160a81b03198116811462000df057600080fd5b919050565b60006020828403121562000e0857600080fd5b62000e138262000dd7565b9392505050565b6001600160401b038116811462000e3057600080fd5b50565b6000806000806080858703121562000e4a57600080fd5b62000e558562000dd7565b935060208501356001600160a01b038116811462000e7257600080fd5b9250604085013562000e848162000e1a565b9150606085013562000e968162000e1a565b939692955090935050565b60005b8381101562000ebe57818101518382015260200162000ea4565b8381111562000ece576000848401525b50505050565b6000815180845262000eee81602086016020860162000ea1565b601f01601f19169290920160200192915050565b60208152600062000e13602083018462000ed4565b6020815281511515602082015260006020830151604080840152805160c060608501528051604061012086015262000f5461016086018262000ed4565b60209283015163ffffffff166101408701529183015160ff81166080870152919050604083015160ff811660a08701529150606083015160ff811660c0870152915060808301516001600160401b03811660e0870152915060a0830151925062000fca6101008601846001600160401b03169052565b95945050505050565b8051801515811462000df057600080fd5b60006020828403121562000ff757600080fd5b62000e138262000fd3565b805162000df08162000e1a565b6000602082840312156200102257600080fd5b815162000e138162000e1a565b634e487b7160e01b600052604160045260246000fd5b604080519081016001600160401b03811182821017156200106a576200106a6200102f565b60405290565b60405160c081016001600160401b03811182821017156200106a576200106a6200102f565b60006001600160401b0380841115620010b257620010b26200102f565b604051601f8501601f19908116603f01168101908282118183101715620010dd57620010dd6200102f565b81604052809350858152868686011115620010f757600080fd5b6200110786602083018762000ea1565b5050509392505050565b600080604083850312156200112557600080fd5b825161010081106200113657600080fd5b60208401519092506001600160401b038111156200115357600080fd5b8301601f810185136200116557600080fd5b620011768582516020840162001095565b9150509250929050565b60006001600160401b03808316818516808303821115620011b157634e487b7160e01b600052601160045260246000fd5b01949350505050565b600060208284031215620011cd57600080fd5b5051919050565b634e487b7160e01b600052602160045260246000fd5b600060208284031215620011fd57600080fd5b81516004811062000e1357600080fd5b805160ff8116811462000df057600080fd5b600060208083850312156200123357600080fd5b82516001600160401b03808211156200124b57600080fd5b90840190604082870312156200126057600080fd5b6200126a62001045565b620012758362000fd3565b815283830151828111156200128957600080fd5b929092019160c083880312156200129f57600080fd5b620012a962001070565b835183811115620012b957600080fd5b84016040818a031215620012cc57600080fd5b620012d662001045565b815185811115620012e657600080fd5b82019450601f85018a13620012fa57600080fd5b6200130a8a865189880162001095565b815286820151945063ffffffff851685146200132557600080fd5b8087018590528252506200133b8486016200120d565b858201526200134d604085016200120d565b604082015262001360606085016200120d565b6060820152620013736080850162001002565b60808201526200138660a0850162001002565b60a082015293810193909352509094935050505056fe608060405234801561001057600080fd5b5060405161051c38038061051c83398101604081905261002f91610196565b80516100429060009060208401906100b7565b506100568161005f60201b6100fa1760201c565b600155506102b2565b60006002826040516100719190610242565b602060405180830381855afa15801561008e573d6000803e3d6000fd5b5050506040513d601f19601f820116820180604052508101906100b1919061025e565b92915050565b8280546100c390610277565b90600052602060002090601f0160209004810192826100e5576000855561012b565b82601f106100fe57805160ff191683800117855561012b565b8280016001018555821561012b579182015b8281111561012b578251825591602001919060010190610110565b5061013792915061013b565b5090565b5b80821115610137576000815560010161013c565b634e487b7160e01b600052604160045260246000fd5b60005b83811015610181578181015183820152602001610169565b83811115610190576000848401525b50505050565b6000602082840312156101a857600080fd5b81516001600160401b03808211156101bf57600080fd5b818401915084601f8301126101d357600080fd5b8151818111156101e5576101e5610150565b604051601f8201601f19908116603f0116810190838211818310171561020d5761020d610150565b8160405282815287602084870101111561022657600080fd5b610237836020830160208801610166565b979650505050505050565b60008251610254818460208701610166565b9190910192915050565b60006020828403121561027057600080fd5b5051919050565b600181811c9082168061028b57607f821691505b602082108114156102ac57634e487b7160e01b600052602260045260246000fd5b50919050565b61025b806102c16000396000f3fe608060405234801561001057600080fd5b50600436106100365760003560e01c806309bd5a601461003b578063f094000214610057575b600080fd5b61004460015481565b6040519081526020015b60405180910390f35b61005f61006c565b60405161004e9190610182565b60008054610079906101b5565b80601f01602080910402602001604051908101604052809291908181526020018280546100a5906101b5565b80156100f25780601f106100c7576101008083540402835291602001916100f2565b820191906000526020600020905b8154815290600101906020018083116100d557829003601f168201915b505050505081565b600060028260405161010c91906101f0565b602060405180830381855afa158015610129573d6000803e3d6000fd5b5050506040513d601f19601f8201168201806040525081019061014c919061020c565b92915050565b60005b8381101561016d578181015183820152602001610155565b8381111561017c576000848401525b50505050565b60208152600082518060208401526101a1816040850160208701610152565b601f01601f19169190910160400192915050565b600181811c908216806101c957607f821691505b602082108114156101ea57634e487b7160e01b600052602260045260246000fd5b50919050565b60008251610202818460208701610152565b9190910192915050565b60006020828403121561021e57600080fd5b505191905056fea26469706673582212205c7b0bd567023f2173ed5ecf445fc74601e6754a655bd9e73835df94bf713d5d64736f6c63430008090033a2646970667358221220abf08bee286fb2cb6d11cc58fe586a357f1e3fc597c4137b039f4508f92ff48564736f6c63430008090033",
  "immutableReferences": {
    "371": [
      {
        "length": 32,
        "start": 105
      },
      {
        "length": 32,
        "start": 957
      },
      {
        "length": 32,
        "start": 1128
      },
      {
        "length": 32,
        "start": 2037
      },
      {
        "length": 32,
        "start": 2787
      },
      {
        "length": 32,
        "start": 2952
      },
      {
        "length": 32,
        "start": 3222
      },
      {
        "length": 32,
        "start": 3390
      }
    ]
  },
  "source": "// SPDX-License-Identifier: MIT\n\npragma solidity 0.8.9;\n\n// Import the UsingWitnet library that enables interacting with Witnet\nimport \"witnet-solidity-bridge/contracts/UsingWitnet.sol\";\n// Import the WitnetRequest contract that enables creating requests on the spot\nimport \"witnet-solidity-bridge/contracts/requests/WitnetRequest.sol\";\n\n/// @title YouTube monetizer using Witnet oracles\n/// @author Shronk, aesedepece\ncontract Monetizer is UsingWitnet {\n  // prettier-ignore\n  struct Video {\n    uint8   notEmpty;        // whether the agreement is empty or not\n    uint64  targetViewCount; // the viewcount the video has to reach\n    uint64  lockTime;        // the time until the tokens can be withdrawn\n    bytes11 id;              // ID of the YouTube video\n    address depositor;       // the depositor's adress\n    address beneficiary;     // the beneficiary's address\n    uint256 amount;          // amount of tokens deposited\n    uint256 witnetQueryId;   // ID of Witnet query\n  }\n\n  /// Map an agreement to an ID\n  mapping(bytes11 => Video) internal videos;\n\n  /// Emits when someone is paid out\n  event Paid(bytes11 id);\n\n  /// Emits when found an error decoding request result\n  event ResultError(string msg);\n\n  error AgreementIsEmpty();\n  error AgreementIsNotEmpty();\n  error TimeLockHasNotExpiredYet(uint256 expectedMinimum, uint256 current);\n  error ViewCountNotCheckedYet();\n  error ViewCountAlreadyChecked();\n  error PendingRequest();\n  error TransferFailed(address addr);\n\n  /// Check whether the video exists\n  modifier notEmpty(bytes11 _id) {\n    if (videos[_id].notEmpty == 0) revert AgreementIsEmpty();\n    _;\n  }\n\n  constructor(WitnetRequestBoard _wrb) UsingWitnet(_wrb) {}\n\n  /// Disgusting workaround\n  function initialize() external view {}\n\n  /// @notice Deposit tokens into the contract\n  /// @param _id              the ID of the YouTube video\n  /// @param _beneficiary     the address of the beneficiary\n  /// @param _lockTime        the time to lock\n  /// @param _targetViewCount the viewcount that is required for the withdrawal\n  // prettier-ignore\n  function deposit(\n    bytes11 _id,\n    address _beneficiary,\n    uint64  _lockTime,\n    uint64  _targetViewCount\n  ) external payable {\n    // Check whether the agreement is empty or not\n    if (videos[_id].notEmpty == 1) revert AgreementIsNotEmpty();\n\n    videos[_id] = Video(\n      1,                                   // notEmpty\n      _targetViewCount,                    // targetViewCount\n      _lockTime + uint64(block.timestamp), // lockTime\n      _id,                                 // id\n      msg.sender,                          // depositor\n      _beneficiary,                        // beneficiary\n      msg.value,                           // amount\n      0                                    // witnetQueryId\n    );\n  }\n\n  /// @notice Send a data request to Witnet so as to get an attestation of the\n  /// current viewcount of a video\n  function checkViews(bytes11 _id) external payable notEmpty(_id) {\n    // Check whether the viewcount has been checked\n    if (videos[_id].witnetQueryId > 0) revert ViewCountAlreadyChecked();\n\n    WitnetRequest request = new WitnetRequest(\n      bytes(\n        abi.encodePacked(\n          hex\"0a76124e0801123a68747470733a2f2f6170692d6d6964646c6577617265732e76657263656c2e6170702f6170692f796f75747562652f\",\n          _id,\n          hex\"1a0e83187782186765766965777318731a110a0d08051209fb3ff199999999999a100322110a0d08051209fb3ff199999999999a100310c0843d186420e80728333080c8afa025\"\n        )\n      )\n    );\n\n    // Keep track of the Witnet query ID\n    (videos[_id].witnetQueryId, ) = _witnetPostRequest(request);\n  }\n\n  /// @notice The depositor withdraws their tokens\n  function withdraw(bytes11 _id) external notEmpty(_id) {\n    // Check whether the viewcount has not been checked yet\n    if (videos[_id].witnetQueryId == 0) revert ViewCountNotCheckedYet();\n\n    if (!_witnetCheckResultAvailability(videos[_id].witnetQueryId))\n      revert PendingRequest();\n\n    Witnet.Result memory result = _witnetReadResult(videos[_id].witnetQueryId);\n\n    if (witnet.isOk(result)) {\n      // We got a valid view count!\n      uint64 viewCount = witnet.asUint64(result);\n      Video memory video = videos[_id];\n\n      // Check whether the video has reached the target view count\n      if (viewCount >= video.targetViewCount) {\n        // If the target view count was reached, we can send the tokens to the\n        // beneficiary\n        (bool sent, ) = video.beneficiary.call{value: video.amount}(\"\");\n        if (!sent) revert TransferFailed(video.beneficiary);\n      } else {\n        // check whether the timelock has expired\n        if (videos[_id].lockTime > block.timestamp)\n          revert TimeLockHasNotExpiredYet(\n            videos[_id].lockTime,\n            block.timestamp\n          );\n\n        // Send the tokens back to the depositor\n        (bool sent, ) = video.depositor.call{value: video.amount}(\"\");\n        if (!sent) revert TransferFailed(video.depositor);\n      }\n\n      emit Paid(_id);\n      delete videos[_id];\n    } else {\n      string memory errorMessage;\n\n      // Try to read the value as an error message, catch error bytes if read\n      // fails\n      try witnet.asErrorMessage(result) returns (\n        Witnet.ErrorCodes,\n        string memory e\n      ) {\n        errorMessage = e;\n      } catch (bytes memory errorBytes) {\n        errorMessage = string(errorBytes);\n      }\n\n      // The Witnet query failed. Set query ID to 0 so it can be retried using\n      // `checkViews()` again\n      videos[_id].witnetQueryId = 0;\n\n      emit ResultError(errorMessage);\n    }\n  }\n}\n",
  "sourcePath": "/home/ricsi/Programs/TypeScript/agora/performance-based-contracts/contracts/Monetizer.sol",
  "compiler": {
    "name": "solc",
    "version": "0.8.9+commit.e5eed63a.Emscripten.clang"
  },
  "schemaVersion": "3.4.3",
  "updatedAt": "2021-11-02T20:23:29.537Z",
  "networkType": "ethereum",
  "devdoc": {
    "author": "Shronk, aesedepece",
    "kind": "dev",
    "methods": {
      "deposit(bytes11,address,uint64,uint64)": {
        "params": {
          "_beneficiary": "the address of the beneficiary",
          "_id": "the ID of the YouTube video",
          "_lockTime": "the time to lock",
          "_targetViewCount": "the viewcount that is required for the withdrawal"
        }
      }
    },
    "title": "YouTube monetizer using Witnet oracles",
    "version": 1
  },
  "userdoc": {
    "events": {
      "Paid(bytes11)": {
        "notice": "Emits when someone is paid out"
      },
      "ResultError(string)": {
        "notice": "Emits when found an error decoding request result"
      }
    },
    "kind": "user",
    "methods": {
      "checkViews(bytes11)": {
        "notice": "Send a data request to Witnet so as to get an attestation of the current viewcount of a video"
      },
      "deposit(bytes11,address,uint64,uint64)": {
        "notice": "Deposit tokens into the contract"
      },
      "initialize()": {
        "notice": "Disgusting workaround"
      },
      "withdraw(bytes11)": {
        "notice": "The depositor withdraws their tokens"
      }
    },
    "version": 1
  }
}